:020000040000fa
:080000000002040000000000f2
:020000040000fa
:040008001c030000d5
:020000040000fa
:04000c001c030000d1
:020000040000fa
:040010001c030000cd
:020000040000fa
:040014001c030000c9
:020000040000fa
:040018001c030000c5
:020000040000fa
:04001c001c030000c1
:020000040000fa
:040020001c030000bd
:020000040000fa
:040024001c030000b9
:020000040000fa
:040028001c030000b5
:020000040000fa
:04002c001c030000b1
:020000040000fa
:040030001c030000ad
:020000040000fa
:040034001c030000a9
:020000040000fa
:040038001c030000a5
:020000040000fa
:04003c001c030000a1
:020000040000fa
:040040001c0300009d
:020000040000fa
:040044001c03000099
:020000040000fa
:040048001c03000095
:020000040000fa
:04004c001c03000091
:020000040000fa
:040050001c0300008d
:020000040000fa
:040054001c03000089
:020000040000fa
:040058001c03000085
:020000040000fa
:04005c001c03000081
:020000040000fa
:040060001c0300007d
:020000040000fa
:040064001c03000079
:020000040000fa
:040068001c03000075
:020000040000fa
:04006c001c03000071
:020000040000fa
:040070001c0300006d
:020000040000fa
:040074000203000083
:020000040000fa
:040078001c03000065
:020000040000fa
:04007c001c03000061
:020000040000fa
:040080001c0300005d
:020000040000fa
:040084001c03000059
:020000040000fa
:040088001c03000055
:020000040000fa
:04008c001c03000051
:020000040000fa
:040090001c0300004d
:020000040000fa
:040094001c03000049
:020000040000fa
:040098001c03000045
:020000040000fa
:04009c001c03000041
:020000040000fa
:0400a0001c0300003d
:020000040000fa
:0400a4001c03000039
:020000040000fa
:0400a8001c03000035
:020000040000fa
:0400ac001c03000031
:020000040000fa
:0400b0001c0300002d
:020000040000fa
:0400b4001c03000029
:020000040000fa
:0400b8001c03000025
:020000040000fa
:0400bc001c03000021
:020000040000fa
:0400c0001c0300001d
:020000040000fa
:0400c4001c03000019
:020000040000fa
:0400c8001c03000015
:020000040000fa
:0400cc001c03000011
:020000040000fa
:0400d0001c0300000d
:020000040000fa
:0400d4001c03000009
:020000040000fa
:0400d8001c03000005
:020000040000fa
:0400dc001c03000001
:020000040000fa
:0400e0001c030000fd
:020000040000fa
:0400e4001c030000f9
:020000040000fa
:0400e8001c030000f5
:020000040000fa
:0400ec001c030000f1
:020000040000fa
:0400f0001c030000ed
:020000040000fa
:0400f4001c030000e9
:020000040000fa
:0400f8001c030000e5
:020000040000fa
:0400fc001c030000e1
:020000040000fa
:040100001c030000dc
:020000040000fa
:040104001c030000d8
:020000040000fa
:040108001c030000d4
:020000040000fa
:04010c001c030000d0
:020000040000fa
:040110001c030000cc
:020000040000fa
:040114001c030000c8
:020000040000fa
:040118001c030000c4
:020000040000fa
:04011c001c030000c0
:020000040000fa
:040120001c030000bc
:020000040000fa
:040124001c030000b8
:020000040000fa
:040128001c030000b4
:020000040000fa
:04012c001c030000b0
:020000040000fa
:040130001c030000ac
:020000040000fa
:040134001c030000a8
:020000040000fa
:040138001c030000a4
:020000040000fa
:04013c001c030000a0
:020000040000fa
:040140001c0300009c
:020000040000fa
:040144001c03000098
:020000040000fa
:040148001c03000094
:020000040000fa
:04014c001c03000090
:020000040000fa
:040150001c0300008c
:020000040000fa
:040154001c03000088
:020000040000fa
:040158001c03000084
:020000040000fa
:04015c001c03000080
:020000040000fa
:040160001c0300007c
:020000040000fa
:040164001c03000078
:020000040000fa
:040168001c03000074
:020000040000fa
:04016c001c03000070
:020000040000fa
:040170001c0300006c
:020000040000fa
:040174001c03000068
:020000040000fa
:040178001c03000064
:020000040000fa
:04017c001c03000060
:020000040000fa
:040180001c0300005c
:020000040000fa
:040184001c03000058
:020000040000fa
:040188001c03000054
:020000040000fa
:04018c001c03000050
:020000040000fa
:040190001c0300004c
:020000040000fa
:040194001c03000048
:020000040000fa
:040198001c03000044
:020000040000fa
:04019c001c03000040
:020000040000fa
:0401a0001c0300003c
:020000040000fa
:0401a4001c03000038
:020000040000fa
:0401a8001c03000034
:020000040000fa
:0401ac001c03000030
:020000040000fa
:0401b0001c0300002c
:020000040000fa
:0401b4001c03000028
:020000040000fa
:0401b8001c03000024
:020000040000fa
:0401bc001c03000020
:020000040000fa
:0401c0001c0300001c
:020000040000fa
:0401c4001c03000018
:020000040000fa
:0401c8001c03000014
:020000040000fa
:0401cc001c03000010
:020000040000fa
:0401d0001c0300000c
:020000040000fa
:0401d4001c03000008
:020000040000fa
:0401d8001c03000004
:020000040000fa
:0401dc001c03000000
:020000040000fa
:0401e0001c030000fc
:020000040000fa
:0401e4001c030000f8
:020000040000fa
:0401e8001c030000f4
:020000040000fa
:0401ec001c030000f0
:020000040000fa
:0401f0001c030000ec
:020000040000fa
:0401f4001c030000e8
:020000040000fa
:0401f8001c030000e4
:020000040000fa
:0401fc001c030000e0
:020000040000fa
:040200001c030000db
:020000040000fa
:040204001c030000d7
:020000040000fa
:040208001c030000d3
:020000040000fa
:04020c001c030000cf
:020000040000fa
:040210001c030000cb
:020000040000fa
:040214001c030000c7
:020000040000fa
:040218001c030000c3
:020000040000fa
:04021c001c030000bf
:020000040000fa
:040220001c030000bb
:020000040000fa
:040224001c030000b7
:020000040000fa
:040228001c030000b3
:020000040000fa
:04022c001c030000af
:020000040000fa
:040230001c030000ab
:020000040000fa
:040234001c030000a7
:020000040000fa
:040238001c030000a3
:020000040000fa
:04023c001c0300009f
:020000040000fa
:040240001c0300009b
:020000040000fa
:040244001c03000097
:020000040000fa
:040248001c03000093
:020000040000fa
:04024c001c0300008f
:020000040000fa
:040250001c0300008b
:020000040000fa
:040254001c03000087
:020000040000fa
:040258001c03000083
:020000040000fa
:04025c001c0300007f
:020000040000fa
:040260001c0300007b
:020000040000fa
:040264001c03000077
:020000040000fa
:040268001c03000073
:020000040000fa
:04026c001c0300006f
:020000040000fa
:040270001c0300006b
:020000040000fa
:040274001c03000067
:020000040000fa
:040278001c03000063
:020000040000fa
:04027c001c0300005f
:020000040000fa
:040280001c0300005b
:020000040000fa
:040284001c03000057
:020000040000fa
:040288001c03000053
:020000040000fa
:04028c001c0300004f
:020000040000fa
:040290001c0300004b
:020000040000fa
:040294001c03000047
:020000040000fa
:040298001c03000043
:020000040000fa
:04029c001c0300003f
:020000040000fa
:0402a0001c0300003b
:020000040000fa
:0402a4001c03000037
:020000040000fa
:0402a8001c03000033
:020000040000fa
:0402ac001c0300002f
:020000040000fa
:0402b0001c0300002b
:020000040000fa
:0402b4001c03000027
:020000040000fa
:0402b8001c03000023
:020000040000fa
:0402bc001c0300001f
:020000040000fa
:0402c0001c0300001b
:020000040000fa
:0402c4001c03000017
:020000040000fa
:0402c8001c03000013
:020000040000fa
:0402cc001c0300000f
:020000040000fa
:0402d0001c0300000b
:020000040000fa
:0402d4001c03000007
:020000040000fa
:0402d8001c03000003
:020000040000fa
:0402dc001c030000ff
:020000040000fa
:0402e0001c030000fb
:020000040000fa
:0402e4001c030000f7
:020000040000fa
:0402e8001c030000f3
:020000040000fa
:0402ec001c030000ef
:020000040000fa
:0402f0001c030000eb
:020000040000fa
:0402f4001c030000e7
:020000040000fa
:0402f8001c030000e3
:020000040000fa
:0402fc001c030000df
:020000040000fa
:040300001c030000da
:020000040000fa
:040304001c030000d6
:020000040000fa
:040308001c030000d2
:020000040000fa
:04030c001c030000ce
:020000040000fa
:040310001c030000ca
:020000040000fa
:040314001c030000c6
:020000040000fa
:040318001c030000c2
:020000040000fa
:04031c001c030000be
:020000040000fa
:040320001c030000ba
:020000040000fa
:040324001c030000b6
:020000040000fa
:100400002f0e21000eff22000e01880000000000c8
:10041000000020000000e000020032000001200087
:100420002002880014000700850007000000e0009b
:1004300003003a00e0922a00010020000200370089
:100440000000200001002000810f70000100320038
:100450000f000700000020000000e0000200320052
:100460000000020000000000689b02000000000085
:100470000040da000000fe00400120000000e00023
:1004800002003200002020009001880000000600d9
:10049000a1028800800478000000eb001f003700f4
:1004a000e284440054a0b4009905ba00e2844400f8
:1004b00054a0b4009906ba00e284440054a0b400e9
:1004c0000006eb00476fde00fd07b200ae018800ba
:1004d000636ce10003003a000ad801000000eb0061
:1004e0000e003700606ce10008003a00004deb00a0
:1004f0000a05e800020039003420ec000af0a000f0
:100500008b05e900f9ff3e00040037006168e10057
:10051000010032000086eb000b00070019c7ba008b
:100520001905ba000e04e00003003a000a00e000da
:10053000dbff3a0000000600fe07b200ae028800b2
:100540008a047800f5ff37000cd0a300e20f4d00bd
:100550001c003b0089027800354dba000a05e8000e
:10056000020039003420ec000af0a0008b05e900fd
:100570000f003200254dba000a05e80002003900dc
:100580003420ec000af0a0008b05e90008003200de
:100590000c00e0000600320015cdba000a05e800a4
:1005a000020039003420ec000af0a0008b05e900bd
:1005b0008984e80054a0b4000b00e000e2ff3a0098
:1005c000000006009902ba00055d78008b05e9007d
:1005d000f7ff3200c82ade00055d78008b05e900d0
:1005e000f3ff32000c00e000f1ff320019ddba0029
:1005f000eeff3700000000000000000000000000d7
:1006000000000000801f78000000fa007072800077
:10061000620060000000e0000300320010c0b30080
:1006200008f0b7004e2ea9000268a9000080fa0069
:100630004f007800004006000040da000000fe0095
:10064000000005000001be001e0007000470a700a6
:1006500003f0a10003f8a30013003a006509b100fc
:1006600010003200090035006928e1000200350061
:1006700001002800000005000000400081804800c3
:100680008502e900fcff3a0000000600f88f4200f6
:10069000050035008100d1000080d3008502e8000c
:1006a000fcff3a00000006008000eb00000005009f
:1006b0004f89de00820178007c0337006011b800aa
:1006c0008a033700c70ade00f107b200f50fb20057
:1006d00008003200e1cf4200020032000170a000a9
:1006e00024000500810f700001003200040805009d
:1006f00044000500810f700002003a00140005005c
:100700008502e9000000400081c04800fcff3b007a
:100710000170a000240005006022b800060220003d
:100720000000d0008180d2000482d2008582d200f5
:100730000000a0000202520083825a000300310030
:100740000202420083824a000000a1000603e90081
:10075000f3ff3a000000060007f827000783610056
:100760000638e10004003a00f707200087836100a3
:100770008703710001003a0003f0a200889fbe00c9
:100780008a9fbe008c9fbe00470ade000480a10045
:10079000c71ade000580a100070028000785600059
:1007a00087856100f70f20000720e1009e003200de
:1007b0000728e1009c003200010678000400e000f8
:1007c000b4003200f7072000878060000170a000ad
:1007d0000500e000c0003200f707200087816100bb
:1007e0000370a000050652000f003a000b50e10014
:1007f0000b0032000308e10002003a000200e100b1
:100800007e0032000204500083845800040031004e
:100810000001fd008101fd008402fd008a05fd004c
:100820006044b800210037000520e10005003d00cc
:100830000001fd008101fd008402fd008a05fd002c
:10084000050652007a60e100050035000170a10044
:100850004722dd00848070008a80700063003700ca
:100860006044b800ef02660007ff2f00070666002d
:100870000500e00006003400f08312008714dd005c
:100880000511de00071bdd00060171008519de0081
:100890007060e100050035000904780082047800ea
:1008a000030178008001eb00700656000b50e10058
:1008b00003003a0002004000838048000400370033
:1008c00060041400e0841c0002005800838058007b
:1008d0000188a300060032008100d1000080d3000f
:1008e0008984d3000884d3000402e800270037007d
:1008f0000178a30025003a000100e0000300320067
:100900008186cf00698656000a0037008c002000df
:100910000000e00004003a00090078008804780034
:100920000004eb00700252008086cf000d064600e6
:100930000c06e9007060e1000600350080007800d8
:1009400009007800880478000004eb007006560067
:10095000700252000c00e0000c0034008c08dd0036
:10096000f00316000703de00868070000c00dd0037
:10097000074bde00060070008c4cdd000743de00f4
:10098000868474000c44dd000c0252006120e100fa
:1009900020003500610160000700280087816400a5
:1009a000f7ff270087836400070374000300e0005b
:1009b0000600320082037300040032000000e800e9
:1009c000e08048000188a3000e003a00f70f2000e5
:1009d0000720e1004a003d000170a1004722dd0030
:1009e000810072008a8070000000be004f06be00c9
:1009f0004f05be004f04be00000006006000b800b6
:100a0000faff37008100d1000080d3000402e80023
:100a1000eeff37000401780089017400a10107008e
:100a20008a807000f1ff3700f701070007027800a5
:100a30000001fd008101fd00f3010700870278003d
:100a4000850372000778a300040032000001fd0056
:100a50008101fd0006020700e4ff37008503620004
:100a60000768a300080032000b50e10003003200c9
:100a7000f0ff2f00f1ff2700dcff37000001fd0031
:100a80008101fd00d9ff37000468a300d7ff3200c1
:100a9000faff3700f8ff2700888360000b003a0058
:100aa0000000e00009003a008303640082837300c1
:100ab000020032000200be00ccff37000b50e10004
:100ac000ceff3a000200be00c8ff3700140020002d
:100ad000810064003eff3700f8ff27008883610033
:100ae00004003a000200e00002003a008c007800a6
:100af000beff3700150020008301640039ff370076
:100b000001f827000000200081007500b7ff3700c2
:100b1000889fbe008a9fbe008c9fbe001b002000e5
:100b20000202be0005866800060028000606660070
:100b30004709de00f20fb200820032000243e800f3
:100b400080003200c729de00f30fb2007d003200c2
:100b50000343e8007b003200f107b2000170a000ff
:100b6000f507b2000570a000c708dd004903de00ec
:100b7000868070004700dd00c72add004923de00c3
:100b8000868272004722dd000305510004035000f5
:100b90008583580003003100000040008180480038
:100ba0000a05e9008c1f78008a9fbe0004005000ef
:100bb000858058000402420085824a0000004000ff
:100bc000818048000005eb000004be006033b800df
:100bd0000406be000d48e100560031000500090082
:100be0004dccd8000c01b8000d02b8008481410042
:100bf00060824a008283530003045c0084845c00aa
:100c000060055d000a00e00025003a0080057800dc
:100c10000d40e100490031008800780007007800ad
:100c2000050009004d88d8000c01b8000d02b8007d
:100c30008481410060824a006003110083835b006d
:100c400004045c00e0845c000900e00021003a003c
:100c50004f01be000300e0002b003200e301600002
:100c6000070673008c81710001003200640070007f
:100c70004200de004e5edd000c007000c258de0057
:100c800001e0a00083010700cf017800818071009e
:100c90004f06be004f05be004f04be000000060018
:100ca0008c8343000d044c00e0844c0060054d0033
:100cb0000000e9000a00e000d4ff32008c8343000a
:100cc0000d044c00e0844c0060054d000000e9007c
:100cd000ceff37000c0343008d834b0060044c00b3
:100ce000e0844c000000e9000900e000d8ff320079
:100cf0000c0343008d834b0060044c00e0844c00e7
:100d00000000e900d2ff37004200de004e5edd0049
:100d10000c007000c258de0001e0a000cf01780096
:100d20000300e000daff320060001000e0801800ed
:100d3000d7ff3700f0ff2f00aaff3700f0ff2f008a
:100d4000b9ff37000404be002f01070087067800b2
:100d50000004fd008104fd002b01070007836600ed
:100d60000678a300030032000960a7000800be0057
:100d70002c0037000d78a300020032000800be00ee
:100d8000280037000778a30026003a0001f0a100f0
:100d900009f0a1000668a30003003200f1ff27005c
:100da000f0ff2f00baff37000d68a30003003200e8
:100db0000800be008c807000b5ff37000768a300f4
:100dc00007003a000648a30003003200f1ff2700a5
:100dd000f0ff2f00aeff37000d48a30003003200e4
:100de0006000b8008c807000a9ff37000748a3009e
:100df0000400320001f82700000020008c80700001
:100e0000a3ff3700760107000004fd008104fd0008
:100e100002057800720107000802be008a0178000e
:100e200059ff37000160a0001202200052808800a4
:100e300097ff37000100e000120032000500e000db
:100e400010003200889fbe008a9fbe008c9fbe00ab
:100e50000006eb0001f8a300030032006000100060
:100e6000e08018000cf0a00005f8a3000300320099
:100e700060021200e0821a000cf0a2008005eb0074
:100e800041ff37006000b8000200050003836800de
:100e90000700280007036300470ade000480a10062
:100ea000c71ade000580a100f70f20000720e1002f
:100eb000420032000728e10040003200889fbe0057
:100ec0008a9fbe008c1f7800f107b200f307b200c2
:100ed0000400e000640032000170a0000500e000a2
:100ee000680032000370a00085054200eb07b100e6
:100ef0000204b8000302b8008484440060854a00fc
:100f0000020ab800848444000a854a00030ab80033
:100f100004054500040033000804d0008984d20091
:100f20000a85d2008b05e9006158e1003d003500db
:100f3000021020000901610003082000898161007e
:100f4000f70720008783640008867300c84cde0022
:100f5000c853dd00878474004855de000300e000bc
:100f60000600320082037600040032008904e800a3
:100f700060054d000a88a3000c003a00f70f20001e
:100f80000758e10044003d000a70a100c75ddd0084
:100f90000a8575008a007300090078004f06780002
:100fa0004f05be004f04be00000006000a05d10038
:100fb0008984d3008b05e800f0ff3700881f780094
:100fc0000604780090000700070278000001fd0089
:100fd0008101fd008c000700870278008503720004
:100fe0000778a300050032000001fd008101fd002b
:100ff0009f0007004f047800000006008503720080
:101000000748a30003003200f0ff2f00f1ff270084
:10101000f8ff37000000200001f8270088807000ea
:10102000f4ff3700880178004848dd0080817100b6
:101030004848de00c850dd0001007000c850de00e6
:10104000060478000b017800160007008880700005
:10105000d2ff37000500e000050032001700200035
:101060003a0007009dff370081037000f9ff3a0046
:10107000860078004f0678004f05be004f04be0082
:101080000000050083037100f9ff320027002000f3
:101090002e00070094ff370001f8270086807000bb
:1010a000f4ff37000100e00026003200610111006a
:1010b0007810e10023003c006022b8007010e100cd
:1010c0000400350080027800010078008000eb0009
:1010d000700151000200e0000900340070031100ab
:1010e000062add00822ade008603dd008782720088
:1010f0000200de00860bdd00070070008208de00c3
:1011000084817100f4ff27000482620084817100f1
:1011100004002800848262006102600005f0a600dd
:101120000000060004827100070032000000e800a1
:10113000e0804800000006000002be006000b80029
:10114000efff37006000b80000000600889fbe0077
:101150000004eb006138e10016003a000100e000f5
:1011600008003a00c800de004800dd0088002000ca
:101170000100e00003003a00c800de004800dd0086
:10118000680444008184cf00e984540006003400e0
:101190008908dd00f08314008703de00878070007b
:1011a0000900dd0009044400610214004f04be0080
:1011b000000006000300e00008003a00c811de004d
:1011c0004811dd00880020000300e00003003a0021
:1011d000c811de004811dd00680444008384cf009c
:1011e000e9845400060034008919dd00f0831400fe
:1011f0008713de00878171000911dd0009044400b6
:10120000e1021400e9ff37002700200001f0a700e9
:1012100017002000470bde00f60fb200040032007a
:101220000643e8000a0032004702b300000006004f
:1012300001037800f607b2000603700002003a00ce
:101240000703b300000006008702b3000000060099
:1012500001037800f607b2000603700002003200b6
:101260000770a000000006000760a0000000060054
:101270000478a300040032000578a30003003200c4
:101280000168a30001003a000200be000160a00056
:101290000000060081017000270032008002eb0090
:1012a00001f8a3000300320060001000e080180085
:1012b00015002000f4072000020242002000340044
:1012c000f70320008703600006042000000363008a
:1012d00002082000000161004700de00c909dd00ae
:1012e00000807100c708de000600e0000800320040
:1012f00087037100060032001000b0000180b000ca
:101300000188a30002003200c108de000402e800e8
:10131000f107b200f30f20000320e10003003d00bd
:101320004722dd00810072002900370001f8270004
:101330000000eb00260037006000b8000000060047
:10134000680212007f20e100020034006000b80053
:101350001f0037006011b8007020e1000400350064
:1013600080017800010078008000eb0070025200dc
:101370000400e00009003400f00312000719dd004a
:101380008419de000703dd00868171000400de00a1
:10139000070bdd00060070008408de00f7ff270061
:1013a0008383630087037100060028000303630042
:1013b000070032000700e00003003a00610160000e
:1013c00002817300020032001000b0000180b00002
:1013d0000500a6000000060001f0a00000000600c5
:1013e0004f0ade004709de00f107b200f20fb2003b
:1013f0000b003200f207b1000170a000c708dd0049
:10140000c901de00838070004700dd000400a600f3
:101410000000060060001000e080180000000600d8
:10142000810f700001003a00000006008182cf00a9
:101430000500e00010003e008082cf00ee824200f6
:101440007028e1000400390007003e0080007800a9
:101450000000eb000e003700708312008600de00f3
:101460000500dd000a003700708352008600dd00b1
:101470000000eb0006003700e28252008508dd0024
:10148000708312000603de00868070000500dd0018
:101490007507b0000501ea000400a6000000060080
:1014a00060001000e080180000000600881f78002f
:1014b000030478000300e00007003d006000100016
:1014c000e080180060011900e081190002003b0073
:1014d00001f02d00030037000400070008f0a7000a
:1014e00001f0a0004f04780000000600889fbe00b5
:1014f0008a9fbe00008270000402710004827100a5
:10150000260032000004be000200be006011b800d8
:101510006b092000950220000182cf000a003900eb
:101520000541b1000082cf00070039000541b1003c
:101530000982cf00040039000541b1000882cf00c4
:10154000010039000541b10005425200120032008d
:101550000a003b0082817100610164008100d100ba
:101560000080d3008984d3000884d3008b05e80071
:101570000442e800f7ff3a0007003700080444007f
:1015800089844c0000004800818048008b05e900f8
:101590000442e900f9ff3a00030007004f05be00ce
:1015a0004f04be000000060081002000618055004d
:1015b0000b003d000b00200061fe2f000100e10048
:1015c0001d00340082817100610164008904d10032
:1015d0000884d3000000e800faff3a007100200000
:1015e0006100640003007000020060000900320026
:1015f00061044400e0844c000988a5000500320025
:101600008b05e8006808e10002003a008904d10077
:101610000884d300f20f20000258e10005003d00cd
:10162000c75ddd00f907b200898075000800780009
:10163000000006000bf827008b0078000000050072
:101640000400fa00889fbe008a9fbe000004be000e
:101650004709de0003002000f20fb200f207b100dc
:10166000f60f510030003c000200e0001c00350085
:10167000faff2f00fb0720000201e90003003300fe
:101680008b85d1000a85d300fbff37008b81640076
:101690000a016000e00f5100e08f59002200320083
:1016a0000200200003b8270034fc0700a0bf9f0001
:1016b000b1bf9f00e00f5400e08f5c0002003d00ce
:1016c0000a0444008b844c000a85ea008b85ea00fa
:1016d0008b8064000a0064000004be001100370023
:1016e0000200200003b8270024fc0700a0bf9f00d1
:1016f000b1bf9f00e00f5400e08f5c000200350096
:101700006044b800070037000800440089804c009e
:10171000e00f5000e08f5800020032000800200067
:1017200009f82b000800be004f05be004f04be00a4
:101730000080fa0000000600f6874700889fbe0080
:101740008a9fbe008c9fbe008e1f78000001be00e5
:101750000600200007f82f000003430081834b00a0
:10176000f4ff2f00f5f72700840f5300858f5b00ef
:101770001b0036000002400081824800e00f52004a
:10178000e08f5a0006003a000001be00bffd0700ce
:101790000001be000000200001f82b000800370007
:1017a000e00f5000e08f580007003d0012022000bb
:1017b000028788000001be00e7fb07006011b80047
:1017c000d3fc0700940037000200200003c024006f
:1017d000aefd07000001be007efe2f000a003700ac
:1017e000840f5000858f58008b003e006000b800c9
:1017f0000400200005f82300840f5100858f590054
:10180000850032000007eb00d0b02f00a1042000bb
:10181000020240008382480094b79f00a5b79f0052
:10182000fe07b100afb09700f107b20004007800e6
:10183000324f200053f32300000041008180490013
:101840000200200003f82300c3fb07000004be00d1
:101850000200200003002400c8fb07000001be00b6
:101860000800be00aafc07000002be000001be0086
:10187000f4b79f0085bf9f0084fd07000006be00ef
:101880000001be0081fd07000005be00020020002f
:1018900003f023000800be007cfd07000801be0025
:1018a0007afd07000001be00f0af9f0081b79f00e6
:1018b0000800be00a8fb070081017800c3b79f00a5
:1018c00002002f0000016100b2b79f003fb19700f6
:1018d000cfb197000800be009ffb07007fa99700cb
:1018e0008fb197009cfb07000003be00e29e2e0014
:1018f00013e923000a00be00d6b79f00e7b79f0098
:1019000062fd0700a2aa2a00a3f223009bfb0700a6
:101910000001be000c00be005cfd07000004be001c
:1019200062e2290083e723000a00be0057fd07009a
:1019300032e12c00c3ec230090fb07000001be0045
:101940000a00be0051fd07000001be000800be00f5
:101950008afb07000001be007fa897008fb09700a8
:1019600086fb07000001be007fb297008fba970088
:101970000400be0045fd07000001be005fb39700f4
:10198000efb397000600be007cfb07000004be001a
:101990003fb19700cfb1970078fb070042ad290017
:1019a00083932b0039fd07000005be0002002b00c9
:1019b00083fb23000800be0034fd07000001be00c9
:1019c0000a00be006dfb07000004be0002002b00f1
:1019d00083fb23003fb09700cfb097002bfd07009b
:1019e0000001be000800be0064fb07000004be004a
:1019f0001fb29700afb297004728de000100200019
:101a000000004700cf80de0029fb07000001be0078
:101a10000800be0059fb07004f0778004f06be00c4
:101a20004f05be004f04be006f01b100000006006c
:101a3000889fbe008a9fbe004709de000300200089
:101a400082017800f30fb20052092000828f51000a
:101a50001d003c004f0dde000b0020000a00e000de
:101a6000070032000200200003b024003afb070008
:101a70000200200003b0240040fb070006003700ee
:101a80000200200003b024003cfb070002002000fd
:101a900003b0240030fb07000004be006011b80052
:101aa0005d0007000000e00006003a006000b8009a
:101ab0000a00e000040032000000200001002800bd
:101ac000010037000800be004f05be004f04be00f5
:101ad000000006000400fa00889fbe008a9fbe0036
:101ae0008c9fbe000004be004708de00f00fb2006d
:101af00051092000810f500041003c000806be0043
:101b0000e00f5400e08f5c0003003d000805be00bc
:101b10000bf0a200010037000805be00d10720002d
:101b2000810f50000a003c000200200003b0240096
:101b30000a00be0011fb070080bf9f0091bf9f00fd
:101b40006011b8000800be00d0fc07002b00370071
:101b50000200200003b024000a00be0007fb0700bb
:101b60000200200003b02400fbfa07000a01be00b7
:101b7000f9fa07000004be000200200003f0230071
:101b8000270007000000e000070034000a01be0043
:101b90000800be00f9fa07000200200003f8230045
:101ba000edfa07000f0037000200200003f02b00c1
:101bb0000800be00180007000000e00006003c001e
:101bc0000a01be000800be00ecfa07000200200077
:101bd00003f82300020037000a01be000800be001f
:101be000e6fa0700e00f5600e08f5e0003003d00bc
:101bf0000004be0009f0a200010037000004be008e
:101c00000800be004f06be004f05be004f04be00d8
:101c10000080fa00000006001400200002003700d7
:101c2000f4ff2f0000003700889fbe008a9fbe008f
:101c3000841f7800170007004f0078001100330060
:101c4000f0ff2f00838f6c0006003b000405650049
:101c50000a00a7000800370009f0a60010002000c5
:101c600008003700820f5400838f5c0003003900a6
:101c70001000200001003e000000200009f0a70035
:101c80000000ea004f05be004f04be000000e00067
:101c9000000006000004be008afa07000003be0030
:101ca0000405be000200be0086fa0700844f7500de
:041cb000000006002a
:020000040000fa
:101cb4000405000006070000080900000a0b0000e4
:101cc4000b0c00000d0e00000e0e00000e0f0000a5
:081cd400dead0000beef0000d0
:020000040000fa
:101cdc000800fa000e81e800004978006400470013
:101cec00010878006400470010007800004078007c
:101cfc00004f780066004700140020008e01780029
:101d0c00121020008e80e80091407800c344070038
:101d1c0064004700100078004800de0000407800a6
:101d2c00004f780066004700140020008e017800f8
:101d3c00021020008e80e80091407800b744070024
:101d4c000080fa00000006000800fa00e4004700da
:101d5c00804878000000eb00000f78006600470018
:101d6c008e80e80014002000810178001210200001
:101d7c00e4004700914078003c4407000e80e800e6
:101d8c00104078000080fb00000f780066004700d0
:101d9c008e80e800140020008101780002102000e1
:101dac00e400470091407800304407000e80e800c2
:101dbc00104078000080fb004800dd001e0f400042
:101dcc001e0078000080fa00000006000600fa00f1
:101ddc000e81e80000497800630047000148780054
:101dec0063004700104078000074a100004f780099
:101dfc0064004700140020008e017800221020009f
:101e0c008e80e80091407800844407000080fa003e
:101e1c00000006000600fa008e80e800804878007a
:101e2c0064004700140020008e017800221020006e
:101e3c008e80e800914078000c4407001e4078002a
:101e4c000074a1000080fa00000006000a00fa00ed
:101e5c008e80e80080487800640047000288be004d
:101e6c00640047001000780000407800004f7800b4
:101e7c0068004700140020008e01780052102000ea
:101e8c008e80e800914078006444070064004700ad
:101e9c001000be004809dd004800de0000007100a3
:101eac00c808de0000407800004f7800680047004a
:101ebc00140020008e017800421020008e80e80073
:101ecc009140780055440700640047001000be00a4
:101edc004008de0000407800004f780068004700a2
:101eec00140020008e017800321020008e80e80053
:101efc0091407800494407000080fa000000060079
:101f0c000a00fa00e6004700804878006000b8003c
:101f1c00008fbe0068004700e4004700140020005a
:101f2c008101780052102000e600470091407800b3
:101f3c00ce43070064004700104078000080fb008f
:101f4c008000eb00008fbe0068004700e4004700f3
:101f5c00140020008101780042102000e6004700a8
:101f6c0091407800c143070064004700104078009e
:101f7c000081fb008001eb004818dd00c810de007a
:101f8c00810070004810dd001e0f40005e97480075
:101f9c0068004700e400470014002000810178002d
:101fac0032102000e600470091407800af43070054
:101fbc0064004700104078000080fb008000eb00bc
:101fcc00c000dd00000020001e0f40005e9748009e
:101fdc001e00be000080fa00000006000a00fa0095
:101fec008e80e80080487800640047000288be00bc
:101ffc00640047001000780000407800004f780023
:10200c0068004700140020008e0178008210200028
:10201c008e80e8009140780000440700640047007f
:10202c001000be004809dd004800de000000710011
:10203c00c808de0000407800004f780068004700b8
:10204c00140020008e017800721020008e80e800b1
:10205c0091407800f1430700640047001000be0077
:10206c004008de0000407800004f78006800470010
:10207c00140020008e017800621020008e80e80091
:10208c0091407800e54307000080fa00000006004c
:10209c000a00fa00e6004700804878006000b800ab
:1020ac00008fbe0068004700e400470014002000c9
:1020bc008101780082102000e600470091407800f2
:1020cc006a43070064004700104078000080fb0062
:1020dc008000eb00008fbe0068004700e400470062
:1020ec00140020008101780072102000e6004700e7
:1020fc00914078005d430700640047001040780071
:10210c000081fb008001eb004818dd00c810de00e8
:10211c00810070004810dd001e0f40005e974800e3
:10212c0068004700e400470014002000810178009b
:10213c0062102000e6004700914078004b430700f6
:10214c0064004700104078000080fb008000eb002a
:10215c00c000dd00000020001e0f40005e9748000c
:10216c001e00be000080fa00000006000a00fa0003
:10217c008e80e80080487800640047000288be002a
:10218c00640047001000780000407800004f780091
:10219c0068004700140020008e017800b210200067
:1021ac008e80e800914078009c4307006400470053
:1021bc001000be004809dd004800de000000710080
:1021cc00c808de0000407800004f78006800470027
:1021dc00140020008e017800a21020008e80e800f0
:1021ec00914078008d430700640047001000be004a
:1021fc004008de00004078006f406000004f78001f
:10220c0068004700140020008e0178009210200016
:10221c008e80e80091407800804307000080fa002f
:10222c00000006000a00fa00889fbe00e600470086
:10223c00804878006000b800008fbe00680047003e
:10224c00e40047001400200081017800b210200047
:10225c00e600470091407800044307006400470003
:10226c00104078000080fb008000eb00008fbe0067
:10227c0068004700e400470014002000810178004a
:10228c00a2102000e600470091407800f7420700ba
:10229c0064004700104078000081fb008001eb00d7
:1022ac004818dd00c810de00810070004810dd0009
:1022bc001e0f40005e97480068004700e40047008e
:1022cc00140020008101780092102000e6004700e5
:1022dc0091407800e5420700640047001040780008
:1022ec000080fb008000eb00000078006f006000b5
:1022fc008004eb00000478000800be00c000dd0084
:10230c00000020001e0f40005e9748001e00be001b
:10231c004f04be000080fa00000006000600fa0020
:10232c000e81e800004978006300470001487800fe
:10233c0064004700140020008e01780092102000e9
:10234c008e80e80091407800c84207001e4078005b
:10235c00804078000174a1006300470010407800b1
:10236c000080fb004700dd000040780000c07000da
:10237c00004f780064004700140020008e017800a4
:10238c00921020008e80e8009140780023430700d3
:10239c000080fa00000006000600fa008e80e800bb
:1023ac008048780064004700140020008e017800fb
:1023bc00921020008e80e80091407800ab4207001c
:1023cc001e4078000080fb004700de0000407800d3
:1023dc000080fa00000006000800fa000e81e800f8
:1023ec000049780064004700010878006400470049
:1023fc001000780000407800004f7800660047001d
:10240c00140020008e017800d21020008e80e8008d
:10241c0091407800014307006400470010007800e9
:10242c004800de0000407800004f7800660047004e
:10243c00140020008e017800c21020008e80e8006d
:10244c0091407800f54207000080fa000000060079
:10245c000800fa00e4004700804878000000eb0018
:10246c00000f7800660047008e80e8001400200002
:10247c0081017800d2102000e400470091407800e0
:10248c007a4207000e80e800104078000080fb00c4
:10249c00000f7800660047008e80e80014002000d2
:1024ac0081017800c2102000e400470091407800c0
:1024bc006e4207000e80e800104078000080fb00a0
:1024cc004800dd001e0f40001e0078000080fa005e
:1024dc00000006000800fa000e81e80000497800b0
:1024ec006400470001087800640047001000780081
:1024fc0000407800004f7800660047001400200070
:10250c008e017800f21020008e80e8009140780057
:10251c00c242070064004700100078004800de004b
:10252c0000407800004f780066004700140020003f
:10253c008e017800e21020008e80e8009140780037
:10254c00b64207000080fa00000006000800fa00fe
:10255c00e4004700804878000000eb00000f780092
:10256c00660047008e80e80014002000810178008e
:10257c00f2102000e4004700914078003b42070035
:10258c000e80e800104078000080fb00000f7800ff
:10259c00660047008e80e80014002000810178005e
:1025ac00e2102000e4004700914078002f42070021
:1025bc000e80e800104078000080fb004800dd0031
:1025cc001e0f40001e0078000080fa00000006007c
:1025dc000800fa000e81e80000497800640047000a
:1025ec000108780064004700100078000040780073
:1025fc00004f780066004700140020008e01780020
:10260c00121120008e80e800914078008342070070
:10261c0064004700100078004800de00004078009d
:10262c00004f780066004700140020008e017800ef
:10263c00021120008e80e80091407800774207005c
:10264c000080fa00000006000800fa00e4004700d1
:10265c00804878000000eb00000f7800660047000f
:10266c008e80e800140020008101780012112000f7
:10267c00e400470091407800fc4107000e80e80020
:10268c00104078000080fb00000f780066004700c7
:10269c008e80e800140020008101780002112000d7
:1026ac00e400470091407800f04107000e80e800fc
:1026bc00104078000080fb004800dd001e0f400039
:1026cc001e0078000080fa00000006000800fa00e6
:1026dc000e81e8000049780064004700010878008a
:1026ec00640047001000780000407800004f78002c
:1026fc0066004700140020008e0178003211200083
:10270c008e80e80091407800444207006400470046
:10271c00100078004800de0000407800004f780080
:10272c0066004700140020008e0178002211200062
:10273c008e80e80091407800384207000080fa0053
:10274c00000006000800fa00e4004700804878000a
:10275c000000eb00000f7800660047008e80e80058
:10276c00140020008101780032112000e4004700a1
:10277c0091407800bd4107000e80e80010407800c1
:10278c000080fb00000f7800660047008e80e80098
:10279c00140020008101780022112000e400470081
:1027ac0091407800b14107000e80e800104078009d
:1027bc000080fb004800dd001e0f40001e0078006a
:1027cc000080fa00000006000600fa000e81e80006
:1027dc000049780063004700014878006300470017
:1027ec00104078007f406000004f78006400470084
:1027fc00140020008e017800421120008e80e80029
:10280c0091407800054207000080fa0000000600a5
:10281c000600fa008e80e8008048780064004700cb
:10282c00140020008e017800421120008e80e800f8
:10283c00914078008d4107001e4078007f40600079
:10284c000080fa00000006000600fa000e81e80085
:10285c000049780063004700014878006300470096
:10286c00104078006f406000004f78006400470013
:10287c00140020008e017800521120008e80e80098
:10288c0091407800e54107000080fa000000060046
:10289c000600fa008e80e80080487800640047004b
:1028ac00140020008e017800521120008e80e80068
:1028bc00914078006d4107001e4078006f40600029
:1028cc000080fa00000006000600fa000e81e80005
:1028dc000049780063004700014878006300470016
:1028ec00104078006f406000004f78006400470093
:1028fc00140020008e017800621120008e80e80008
:10290c0091407800c54107000080fa0000000600e5
:10291c000600fa008e80e8008048780064004700ca
:10292c00140020008e017800621120008e80e800d7
:10293c00914078004d4107001e4078006f406000c8
:10294c000080fa00000006000600fa000e81e80084
:10295c000049780063004700014878006400470094
:10296c00140020008e017800721120008e80e80087
:10297c00914078003d4107001e407800804078006f
:10298c00c0cfb30080c060006300470010407800e7
:10299c0000c07000004f7800640047001400200055
:1029ac008e017800721120008e80e8009140780032
:1029bc009a4107000080fa00000006000600fa00a9
:1029cc008e80e800804878006400470014002000e6
:1029dc008e017800721120008e80e8009140780002
:1029ec00224107001e407800634060000080fa001e
:1029fc00000006000600fa000e81e800004978008d
:102a0c006300470001487800640047001400200070
:102a1c008e017800721120008e80e80091407800c1
:102a2c00124107001e4078008040780030cfb30080
:102a3c0080c0600063004700104078000080fb00fd
:102a4c004200dd000040780000c07000004f7800ac
:102a5c0064004700140020008e01780072112000e1
:102a6c008e80e800914078006c4107000080fa00ed
:102a7c00000006000600fa008e80e800804878000e
:102a8c0064004700140020008e01780072112000b1
:102a9c008e80e80091407800f44007001e407800da
:102aac000080fb006c0060004280de00004078007b
:102abc000080fa00000006000600fa000e81e80013
:102acc000049780063004700014878006400470023
:102adc00140020008e017800721120008e80e80016
:102aec0091407800e14007001e407800804078005b
:102afc00f0ccb30080c06000630047001040780049
:102b0c000080fb004400dd000040780000c0700035
:102b1c00004f780064004700140020008e017800fc
:102b2c00721120008e80e800914078003b41070034
:102b3c000080fa00000006000600fa008e80e80013
:102b4c008048780064004700140020008e01780053
:102b5c00721120008e80e80091407800c34007007d
:102b6c001e4078008080fb00000320000080600085
:102b7c004480de00004078000080fa00000006006f
:102b8c000600fa000e81e800004978006300470057
:102b9c000148780064004700140020008e01780082
:102bac00721120008e80e80091407800af40070041
:102bbc001e407800f2c3b3008240600063004700ff
:102bcc00104078000080fb004600dd0000407800db
:102bdc0000c07000004f7800640047001400200013
:102bec008e017800721120008e80e80091407800f0
:102bfc000a4107000080fa00000006000600fa00f7
:102c0c008e80e800804878006400470014002000a3
:102c1c008e017800721120008e80e80091407800bf
:102c2c00924007001e4078000080fb004600de004a
:102c3c00004078000080fa00000006000600fa0050
:102c4c008e80e80080487800640047001400200063
:102c5c008e017800821120008e80e800914078006f
:102c6c00824007001e407800634060000080fa003c
:102c7c00000006000600fa008e80e800804878000c
:102c8c0064004700140020008e017800821120009f
:102c9c008e80e80091407800744007001e40780058
:102cac000080fb006c0060004280de000040780079
:102cbc000080fa00000006000600fa008e80e80092
:102ccc008048780064004700140020008e017800d2
:102cdc00821120008e80e80091407800634007004c
:102cec001e4078000080fb00700060004480de0015
:102cfc00004078000080fa00000006000600fa0090
:102d0c000e81e80000497800630047000148780014
:102d1c0064004700140020008e017800021220008d
:102d2c008e80e80091407800504007001e407800eb
:102d3c008040780000cfb30080c060006300470083
:102d4c001040780000c07000004f7800640047000d
:102d5c00140020008e017800021220008e80e80002
:102d6c0091407800ad4007000080fa00000006009a
:102d7c000600fa008e80e800804878006400470066
:102d8c00140020008e017800021220008e80e800d2
:102d9c0091407800354007001e4078006f4060007d
:102dac000080fa00000006000600fa000e81e80020
:102dbc000049780063004700014878006400470030
:102dcc00140020008e017800021220008e80e80092
:102ddc0091407800254007001e407800ef406000cd
:102dec0063004700104078000080fb004400dd00c9
:102dfc000040780000c07000004f7800640047006d
:102e0c00140020008e017800021220008e80e80051
:102e1c0091407800814007000080fa000000060015
:102e2c000600fa008e80e8008048780064004700b5
:102e3c00140020008e017800021220008e80e80021
:102e4c0091407800094007001e4078000080fb008c
:102e5c004400de00004078000080fa00000006000c
:102e6c000600fa000e81e800004978006300470074
:102e7c000148780064004700140020008e0178009f
:102e8c00021320008e80e80091407800f73f070085
:102e9c001e4078008040780000cfb30080c06000f6
:102eac00630047001040780000c07000004f7800ad
:102ebc0064004700140020008e01780002132000eb
:102ecc008e80e80091407800544007000080fa00a2
:102edc00000006000600fa008e80e80080487800aa
:102eec0064004700140020008e01780002132000bb
:102efc008e80e80091407800dc3f07001e4078008f
:102f0c006f4060000080fa00000006000600fa0026
:102f1c000e81e80000497800630047000148780002
:102f2c0064004700140020008e017800021320007a
:102f3c008e80e80091407800cc3f07001e4078005e
:102f4c00ef40600063004700104078000080fb00f9
:102f5c004400dd000040780000c07000004f780095
:102f6c0064004700140020008e017800021320003a
:102f7c008e80e80091407800284007000080fa001d
:102f8c00000006000600fa008e80e80080487800f9
:102f9c0064004700140020008e017800021320000a
:102fac008e80e80091407800b03f07001e4078000a
:102fbc000080fb004400de00004078000080fa0036
:102fcc00000006000600fa000e81e80000497800b7
:102fdc00630047000148780064004700140020009b
:102fec008e017800021420008e80e8009140780059
:102ffc009e3f07001e4078008040780000cfb30051
:10300c0080c06000630047001040780000c0700072
:10301c00004f780064004700140020008e017800f7
:10302c00021420008e80e80091407800fb3f0700de
:10303c000080fa00000006000600fa008e80e8000e
:10304c008048780064004700140020008e0178004e
:10305c00021420008e80e80091407800833f070026
:10306c001e4078006f4060000080fa0000000600ef
:10307c000600fa000e81e800004978006300470062
:10308c000148780064004700140020008e0178008d
:10309c00021420008e80e80091407800733f0700f6
:1030ac001e407800ef40600063004700104078003d
:1030bc000080fb004400dd000040780000c0700080
:1030cc00004f780064004700140020008e01780047
:1030dc00021420008e80e80091407800cf3f07005a
:1030ec000080fa00000006000600fa008e80e8005e
:1030fc008048780064004700140020008e0178009e
:10310c00021420008e80e80091407800573f0700a1
:10311c001e4078000080fb004400de000040780078
:10312c000080fa00000006000600fa000e81e8009c
:10313c0000497800630047000148780064004700ac
:10314c00140020008e017800021520008e80e8000b
:10315c0091407800453f07001e4078008040780081
:10316c0000cfb30080c060006300470010407800bf
:10317c0000c07000004f780064004700140020006d
:10318c008e017800021520008e80e80091407800b6
:10319c00a23f07000080fa00000006000600fa00bb
:1031ac008e80e800804878006400470014002000fe
:1031bc008e017800021520008e80e8009140780086
:1031cc002a3f07001e4078006f4060000080fa0024
:1031dc00000006000600fa000e81e80000497800a5
:1031ec006300470001487800640047001400200089
:1031fc008e017800021520008e80e8009140780046
:10320c001a3f07001e407800ef4060006300470043
:10321c00104078000080fb004400dd000040780086
:10322c0000c07000004f78006400470014002000bc
:10323c008e017800021520008e80e8009140780005
:10324c00763f07000080fa00000006000600fa0036
:10325c008e80e8008048780064004700140020004d
:10326c008e017800021520008e80e80091407800d5
:10327c00fe3e07001e4078000080fb004400de008c
:10328c00004078000080fa00000006000600fa00fa
:10329c000e81e8000049780063004700014878007f
:1032ac0063004700104f78006400470014002000b2
:1032bc008e017800121220008e80e8009140780078
:1032cc00563f07000080fa00000006000600fa00d6
:1032dc008e80e800804878006400470014002000cd
:1032ec008e017800121220008e80e8009140780048
:1032fc00de3e07001e4078000080fa000000060049
:10330c000600fa000e81e8000049780063004700cf
:10331c000148780063004700104f780064004700b4
:10332c00140020008e017800121320008e80e8001b
:10333c0091407800393f07000080fa000000060039
:10334c000600fa008e80e800804878006400470090
:10335c00140020008e017800121320008e80e800eb
:10336c0091407800c13e07001e4078000080fa00b2
:10337c00000006000600fa000e81e8000049780003
:10338c00630047000148780063004700104f780045
:10339c0064004700140020008e01780012142000f5
:1033ac008e80e800914078001c3f07000080fa00f6
:1033bc00000006000600fa008e80e80080487800c5
:1033cc0064004700140020008e01780012142000c5
:1033dc008e80e80091407800a43e07001e407800e3
:1033ec000080fa00000006000600fa000e81e800da
:1033fc0000497800630047000148780063004700eb
:10340c00104f780064004700140020008e017800f3
:10341c00121520008e80e80091407800ff3e0700d6
:10342c000080fa00000006000600fa008e80e8001a
:10343c008048780064004700140020008e0178005a
:10344c00121520008e80e80091407800873e07001e
:10345c001e4078000080fa00000006000600fa000a
:10346c000e81e800004978006300470001487800ad
:10347c00630047001040780067406000004f780000
:10348c0064004700140020008e01780022122000f6
:10349c008e80e80091407800e03e07000080fa0042
:1034ac00000006000600fa008e80e80080487800d4
:1034bc0064004700140020008e01780022122000c6
:1034cc008e80e80091407800683e07001e4078002e
:1034dc00674060000080fa00000006000600fa0059
:1034ec000e81e8000049780063004700014878002d
:1034fc00630047001040780067406000004f780080
:10350c0064004700140020008e0178002213200074
:10351c008e80e80091407800c03e07000080fa00e1
:10352c00000006000600fa008e80e8008048780053
:10353c0064004700140020008e0178002213200044
:10354c008e80e80091407800483e07001e407800cd
:10355c00674060000080fa00000006000600fa00d8
:10356c000e81e800004978006300470001487800ac
:10357c00630047001040780067406000004f7800ff
:10358c0064004700140020008e01780022142000f3
:10359c008e80e80091407800a03e07000080fa0081
:1035ac00000006000600fa008e80e80080487800d3
:1035bc0064004700140020008e01780022142000c3
:1035cc008e80e80091407800283e07001e4078006d
:1035dc00674060000080fa00000006000600fa0058
:1035ec000e81e8000049780063004700014878002c
:1035fc00630047001040780067406000004f78007f
:10360c0064004700140020008e0178002215200071
:10361c008e80e80091407800803e07000080fa0020
:10362c00000006000600fa008e80e8008048780052
:10363c0064004700140020008e0178002215200041
:10364c008e80e80091407800083e07001e4078000c
:10365c00674060000080fa00000006000600fa00d7
:10366c000e81e800004978006300470001487800ab
:10367c0064004700140020008e01780032122000f4
:10368c008e80e80091407800f83d07001e407800dd
:10369c008040780080cfb30080c06000630047009a
:1036ac001040780000c07000004f780064004700a4
:1036bc00140020008e017800321220008e80e80069
:1036cc0091407800553e07000080fa00000006008b
:1036dc000600fa008e80e8008048780064004700fd
:1036ec00140020008e017800321220008e80e80039
:1036fc0091407800dd3d07001e4078006740600077
:10370c000080fa00000006000600fa000e81e800b6
:10371c0000497800630047000148780064004700c6
:10372c00140020008e017800321220008e80e800f8
:10373c0091407800cd3d07001e4078008040780015
:10374c00f0c8b30080c060006300470010407800f0
:10375c000080fb004400dd000040780000c07000d9
:10376c00004f780064004700140020008e017800a0
:10377c00321220008e80e80091407800273e07002e
:10378c000080fa00000006000600fa008e80e800b7
:10379c008048780064004700140020008e017800f7
:1037ac00321220008e80e80091407800af3d070077
:1037bc001e4078008080fb00000720000080600025
:1037cc004480de00004078000080fa000000060013
:1037dc000600fa000e81e8000049780063004700fb
:1037ec000148780064004700140020008e01780026
:1037fc00321320008e80e800914078009b3d07003a
:10380c001e4078008040780080cfb30080c06000fc
:10381c00630047001040780000c07000004f780033
:10382c0064004700140020008e0178003213200041
:10383c008e80e80091407800f83d07000080fa0087
:10384c00000006000600fa008e80e8008048780030
:10385c0064004700140020008e0178003213200011
:10386c008e80e80091407800803d07001e40780073
:10387c00674060000080fa00000006000600fa00b5
:10388c000e81e80000497800630047000148780089
:10389c0064004700140020008e01780032132000d1
:1038ac008e80e80091407800703d07001e40780043
:1038bc0080407800f0c8b30080c06000630047000f
:1038cc00104078000080fb004400dd0000407800d0
:1038dc0000c07000004f7800640047001400200006
:1038ec008e017800321320008e80e8009140780021
:1038fc00ca3d07000080fa00000006000600fa002e
:10390c008e80e80080487800640047001400200096
:10391c008e017800321320008e80e80091407800f0
:10392c00523d07001e4078008080fb0000072000fd
:10393c00008060004480de00004078000080fa00c7
:10394c00000006000600fa000e81e800004978002d
:10395c006300470001487800640047001400200011
:10396c008e017800321420008e80e800914078009f
:10397c003e3d07001e4078008040780080cfb300a9
:10398c0080c06000630047001040780000c07000e9
:10399c00004f780064004700140020008e0178006e
:1039ac00321420008e80e800914078009b3d070087
:1039bc000080fa00000006000600fa008e80e80085
:1039cc008048780064004700140020008e017800c5
:1039dc00321420008e80e80091407800233d0700cf
:1039ec001e407800674060000080fa00000006006e
:1039fc000600fa000e81e8000049780063004700d9
:103a0c000148780064004700140020008e01780003
:103a1c00321420008e80e80091407800133d07009e
:103a2c001e40780080407800f0c8b30080c0600071
:103a3c0063004700104078000080fb004400dd006c
:103a4c000040780000c07000004f78006400470010
:103a5c00140020008e017800321420008e80e800c3
:103a6c00914078006d3d07000080fa0000000600d0
:103a7c000600fa008e80e800804878006400470059
:103a8c00140020008e017800321420008e80e80093
:103a9c0091407800f53c07001e4078008080fb00c8
:103aac0000072000008060004480de0000407800a9
:103abc000080fa00000006000600fa000e81e80003
:103acc000049780063004700014878006400470013
:103adc00140020008e017800321520008e80e80042
:103aec0091407800e13c07001e407800804078004f
:103afc0080cfb30080c060006300470010407800a6
:103b0c0000c07000004f78006400470014002000d3
:103b1c008e017800321520008e80e80091407800ec
:103b2c003e3d07000080fa00000006000600fa0087
:103b3c008e80e80080487800640047001400200064
:103b4c008e017800321520008e80e80091407800bc
:103b5c00c63c07001e407800674060000080fa00f9
:103b6c00000006000600fa000e81e800004978000b
:103b7c0063004700014878006400470014002000ef
:103b8c008e017800321520008e80e800914078007c
:103b9c00b63c07001e40780080407800f0c8b300a7
:103bac0080c0600063004700104078000080fb007c
:103bbc004400dd000040780000c07000004f780029
:103bcc0064004700140020008e017800321520009c
:103bdc008e80e80091407800103d07000080fa00cc
:103bec00000006000600fa008e80e800804878008d
:103bfc0064004700140020008e017800321520006c
:103c0c008e80e80091407800983c07001e407800b8
:103c1c008080fb0000072000008060004480de00f4
:103c2c00004078000080fa00000006000800fa004e
:103c3c008e81e800804978006300470001487800d5
:103c4c006400470002487800640047001040780088
:103c5c00ef40600063004700104078000080fb00dc
:103c6c004400dd000040780000c04000004f7800a8
:103c7c0066004700140020008e01780042122000dc
:103c8c008e80e80091407800e43c07000080fa0048
:103c9c00000006000a00fa008e81e80080497800d6
:103cac0064004700010878006600470002087800ad
:103cbc0068004700140020008e017800421220009a
:103ccc008e80e80091407800683c07006400470053
:103cdc00900078000040eb00804878009e4078000f
:103cec0000cfb30000c06000e600470091007800f0
:103cfc00804878000080fa00000006000800fa00f6
:103d0c008e81e80080497800630047000148780004
:103d1c0064004700024878006400470010407800b7
:103d2c00ef40600063004700104078000080fb000b
:103d3c004400dd000040780000c04000004f7800d7
:103d4c0066004700140020008e017800421320000a
:103d5c008e80e80091407800b03c07000080fa00ab
:103d6c00000006000a00fa008e81e8008049780005
:103d7c0064004700010878006600470002087800dc
:103d8c0068004700140020008e01780042132000c8
:103d9c008e80e80091407800343c070064004700b6
:103dac00900078000040eb00804878009e4078003e
:103dbc0000cfb30000c06000e6004700910078001f
:103dcc00804878000080fa00000006000800fa0025
:103ddc008e81e80080497800630047000148780034
:103dec0064004700024878006400470010407800e7
:103dfc00ef40600063004700104078000080fb003b
:103e0c004400dd000040780000c04000004f780006
:103e1c0066004700140020008e0178004214200038
:103e2c008e80e800914078007c3c07000080fa000e
:103e3c00000006000a00fa008e81e8008049780034
:103e4c00640047000108780066004700020878000b
:103e5c0068004700140020008e01780042142000f6
:103e6c008e80e80091407800003c07006400470019
:103e7c00900078000040eb00804878009e4078006d
:103e8c0000cfb30000c06000e6004700910078004e
:103e9c00804878000080fa00000006000800fa0054
:103eac008e81e80080497800630047000148780063
:103ebc006400470002487800640047001040780016
:103ecc00ef40600063004700104078000080fb006a
:103edc004400dd000040780000c04000004f780036
:103eec0066004700140020008e0178004215200067
:103efc008e80e80091407800483c07000080fa0072
:103f0c00000006000a00fa008e81e8008049780063
:103f1c00640047000108780066004700020878003a
:103f2c0068004700140020008e0178004215200024
:103f3c008e80e80091407800cc3b0700640047007d
:103f4c00900078000040eb00804878009e4078009c
:103f5c0000cfb30000c06000e6004700910078007d
:103f6c00804878000080fa00000006000800fa0083
:103f7c008e81e80080497800630047000148780092
:103f8c006400470002487800640047001040780045
:103f9c00ef40600063004700104078000080fb0099
:103fac004400dd000040780000c04000004f780065
:103fbc0066004700140020008e0178005212200089
:103fcc008e80e80091407800143c07000080fa00d5
:103fdc00000006000a00fa008e81e8008049780093
:103fec00640047000108780066004700020878006a
:103ffc0068004700140020008e0178005212200047
:10400c008e80e80091407800983b070064004700e0
:10401c00900078000040eb00804878009e407800cb
:10402c0000cfb30000c06000e600470091007800ac
:10403c00804878000080fa00000006000800fa00b2
:10404c008e81e800804978006300470001487800c1
:10405c006400470002487800640047001040780074
:10406c00ef40600063004700104078000080fb00c8
:10407c004400dd000040780000c04000004f780094
:10408c0066004700140020008e01780052132000b7
:10409c008e80e80091407800e03b07000080fa0039
:1040ac00000006000a00fa008e81e80080497800c2
:1040bc006400470001087800660047000208780099
:1040cc0068004700140020008e0178005213200075
:1040dc008e80e80091407800643b07006400470044
:1040ec00900078000040eb00804878009e407800fb
:1040fc0000cfb30000c06000e600470091007800dc
:10410c00804878000080fa00000006000800fa00e1
:10411c008e81e800804978006300470001487800f0
:10412c0064004700024878006400470010407800a3
:10413c00ef40600063004700104078000080fb00f7
:10414c004400dd000040780000c04000004f7800c3
:10415c0066004700140020008e01780052142000e5
:10416c008e80e80091407800ac3b07000080fa009c
:10417c00000006000a00fa008e81e80080497800f1
:10418c0064004700010878006600470002087800c8
:10419c0068004700140020008e01780052142000a3
:1041ac008e80e80091407800303b070064004700a7
:1041bc00900078000040eb00804878009e4078002a
:1041cc0000cfb30000c06000e6004700910078000b
:1041dc00804878000080fa00000006000800fa0011
:1041ec008e81e80080497800630047000148780020
:1041fc0064004700024878006400470010407800d3
:10420c00ef40600063004700104078000080fb0026
:10421c004400dd000040780000c04000004f7800f2
:10422c0066004700140020008e0178005215200013
:10423c008e80e80091407800783b07000080fa00ff
:10424c00000006000a00fa008e81e8008049780020
:10425c0064004700010878006600470002087800f7
:10426c0068004700140020008e01780052152000d1
:10427c008e80e80091407800fc3a0700640047000b
:10428c00900078000040eb00804878009e40780059
:10429c0000cfb30000c06000e6004700910078003a
:1042ac00804878000080fa00000006000600fa0042
:1042bc000e81e8000049780063004700014878004f
:1042cc0064004700140020008e0178006212200068
:1042dc008e80e80091407800e43a07001e40780098
:1042ec008040780000cfb30080c0600063004700be
:1042fc001040780000c07000004f78006400470048
:10430c00140020008e017800621220008e80e800dc
:10431c0091407800413b07000080fa000000060045
:10432c000600fa008e80e8008048780064004700a0
:10433c00140020008e017800621220008e80e800ac
:10434c0091407800c93a07001e4078006f40600029
:10435c000080fa00000006000600fa000e81e8005a
:10436c00004978006300470001487800640047006a
:10437c00140020008e017800621220008e80e8006c
:10438c0091407800b93a07001e407800f2c3b300a0
:10439c008240600063004700104078000080fb0002
:1043ac004600dd000040780000c07000004f78002f
:1043bc0064004700140020008e0178006212200077
:1043cc008e80e80091407800143b07000080fa00d2
:1043dc00000006000600fa008e80e8008048780095
:1043ec0064004700140020008e0178006212200047
:1043fc008e80e800914078009c3a07001e407800bf
:10440c000080fb004600de00004078000080fa00cf
:10441c00000006000600fa000e81e8000049780052
:10442c006300470001487800640047001400200036
:10443c008e017800621320008e80e8009140780095
:10444c008a3a07001e4078008040780000cfb30005
:10445c0080c06000630047001040780000c070000e
:10446c00004f780064004700140020008e01780093
:10447c00621320008e80e80091407800e73a070034
:10448c000080fa00000006000600fa008e80e800aa
:10449c008048780064004700140020008e017800ea
:1044ac00621320008e80e800914078006f3a07007c
:1044bc001e4078006f4060000080fa00000006008b
:1044cc000600fa000e81e8000049780063004700fe
:1044dc000148780064004700140020008e01780029
:1044ec00621320008e80e800914078005f3a07004c
:1044fc001e407800f2c3b3008240600063004700a6
:10450c00104078000080fb004600dd000040780081
:10451c0000c07000004f78006400470014002000b9
:10452c008e017800621320008e80e80091407800a4
:10453c00ba3a07000080fa00000006000600fa00f4
:10454c008e80e8008048780064004700140020004a
:10455c008e017800621320008e80e8009140780074
:10456c00423a07001e4078000080fb004600de0047
:10457c00004078000080fa00000006000600fa00f7
:10458c000e81e8000049780063004700014878007c
:10459c0064004700140020008e0178006214200093
:1045ac008e80e80091407800303a07001e40780079
:1045bc008040780000cfb30080c0600063004700eb
:1045cc001040780000c07000004f78006400470075
:1045dc00140020008e017800621420008e80e80008
:1045ec00914078008d3a07000080fa000000060028
:1045fc000600fa008e80e8008048780064004700ce
:10460c00140020008e017800621420008e80e800d7
:10461c0091407800153a07001e4078006f4060000a
:10462c000080fa00000006000600fa000e81e80087
:10463c000049780063004700014878006400470097
:10464c00140020008e017800621420008e80e80097
:10465c0091407800053a07001e407800f2c3b30081
:10466c008240600063004700104078000080fb002f
:10467c004600dd000040780000c07000004f78005c
:10468c0064004700140020008e01780062142000a2
:10469c008e80e80091407800603a07000080fa00b4
:1046ac00000006000600fa008e80e80080487800c2
:1046bc0064004700140020008e0178006214200072
:1046cc008e80e80091407800e83907001e407800a1
:1046dc000080fb004600de00004078000080fa00fd
:1046ec00000006000600fa000e81e8000049780080
:1046fc006300470001487800640047001400200064
:10470c008e017800621520008e80e80091407800c0
:10471c00d63907001e4078008040780000cfb300e7
:10472c0080c06000630047001040780000c070003b
:10473c00004f780064004700140020008e017800c0
:10474c00621520008e80e80091407800333a070013
:10475c000080fa00000006000600fa008e80e800d7
:10476c008048780064004700140020008e01780017
:10477c00621520008e80e80091407800bb3907005c
:10478c001e4078006f4060000080fa0000000600b8
:10479c000600fa000e81e80000497800630047002b
:1047ac000148780064004700140020008e01780056
:1047bc00621520008e80e80091407800ab3907002c
:1047cc001e407800f2c3b3008240600063004700d3
:1047dc00104078000080fb004600dd0000407800af
:1047ec0000c07000004f78006400470014002000e7
:1047fc008e017800621520008e80e80091407800d0
:10480c00063a07000080fa00000006000600fa00d5
:10481c008e80e80080487800640047001400200077
:10482c008e017800621520008e80e800914078009f
:10483c008e3907001e4078000080fb004600de0029
:10484c00004078000080fa00000006000600fa0024
:10485c000e81e800004978006300470001487800a9
:10486c0064004700140020008e01780072122000b2
:10487c008e80e800914078007c3907001e4078005b
:10488c008040780000cfb30080c060006300470018
:10489c001040780000c07000004f780064004700a2
:1048ac00140020008e017800721220008e80e80027
:1048bc0091407800d93907000080fa00000006000a
:1048cc000600fa008e80e8008048780064004700fb
:1048dc00140020008e017800721220008e80e800f7
:1048ec0091407800613907001e4078006f406000ed
:1048fc000080fa00000006000600fa000e81e800b5
:10490c0000497800630047000148780064004700c4
:10491c00140020008e017800721220008e80e800b6
:10492c0091407800513907001e4078008040780093
:10493c000144a10063004700104078000080fb0098
:10494c004400dd000040780000c07000004f78008b
:10495c0064004700140020008e01780072122000c1
:10496c008e80e80091407800ac3907000080fa0096
:10497c00000006000600fa008e80e80080487800ef
:10498c0064004700140020008e0178007212200091
:10499c008e80e80091407800343907001e40780082
:1049ac000080fb00700060004480de000040780056
:1049bc000080fa00000006000600fa000e81e800f4
:1049cc000049780063004700014878006400470004
:1049dc00140020008e017800721220008e80e800f6
:1049ec0091407800213907001e4078008040780003
:1049fc000154a10063004700104078000080fb00c8
:104a0c004500dd000040780000c07000004f7800c9
:104a1c0064004700140020008e0178007212200000
:104a2c008e80e800914078007c3907000080fa0005
:104a3c00000006000600fa008e80e800804878002e
:104a4c0064004700140020008e01780072122000d0
:104a5c008e80e80091407800043907001e407800f1
:104a6c008080fb0000022000008060004580de009a
:104a7c00004078000080fa00000006000600fa00f2
:104a8c000e81e80000497800630047000148780077
:104a9c0064004700140020008e0178007212200080
:104aac008e80e80091407800f03807001e407800b6
:104abc00804078000164a10063004700104078003a
:104acc000080fb004600dd000040780000c0700054
:104adc00004f780064004700140020008e0178001d
:104aec00721220008e80e800914078004b3907004c
:104afc000080fa00000006000600fa008e80e80034
:104b0c008048780064004700140020008e01780073
:104b1c00721220008e80e80091407800d338070094
:104b2c001e4078008080fb000004200000806000a4
:104b3c004680de00004078000080fa00000006008d
:104b4c000600fa000e81e800004978006300470077
:104b5c000148780064004700140020008e017800a2
:104b6c00721220008e80e80091407800bf38070058
:104b7c001e407800804078000174a100630047005b
:104b8c00104078000080fb004700dd0000407800fa
:104b9c0000c07000004f7800640047001400200033
:104bac008e017800721220008e80e800914078000f
:104bbc001a3907000080fa00000006000600fa000f
:104bcc008e80e800804878006400470014002000c4
:104bdc008e017800721220008e80e80091407800df
:104bec00a23807001e4078000080fb004700de0062
:104bfc00004078000080fa00000006000600fa0071
:104c0c000e81e800004978006300470001487800f5
:104c1c0064004700140020008e01780072132000fd
:104c2c008e80e80091407800903807001e40780094
:104c3c008040780000cfb30080c060006300470064
:104c4c001040780000c07000004f780064004700ee
:104c5c00140020008e017800721320008e80e80072
:104c6c0091407800ed3807000080fa000000060043
:104c7c000600fa008e80e800804878006400470047
:104c8c00140020008e017800721320008e80e80042
:104c9c0091407800753807001e4078006f40600026
:104cac000080fa00000006000600fa000e81e80001
:104cbc000049780063004700014878006400470011
:104ccc00140020008e017800721320008e80e80002
:104cdc0091407800653807001e40780080407800cd
:104cec000144a10063004700104078000080fb00e5
:104cfc004400dd000040780000c07000004f7800d8
:104d0c0064004700140020008e017800721320000c
:104d1c008e80e80091407800c03807000080fa00cf
:104d2c00000006000600fa008e80e800804878003b
:104d3c0064004700140020008e01780072132000dc
:104d4c008e80e80091407800483807001e407800bb
:104d5c000080fb00700060004480de0000407800a2
:104d6c000080fa00000006000600fa000e81e80040
:104d7c000049780063004700014878006400470050
:104d8c00140020008e017800721320008e80e80041
:104d9c0091407800353807001e407800804078003c
:104dac000154a10063004700104078000080fb0014
:104dbc004500dd000040780000c07000004f780016
:104dcc0064004700140020008e017800721320004c
:104ddc008e80e80091407800903807000080fa003f
:104dec00000006000600fa008e80e800804878007b
:104dfc0064004700140020008e017800721320001c
:104e0c008e80e80091407800183807001e4078002a
:104e1c008080fb0000022000008060004580de00e6
:104e2c00004078000080fa00000006000600fa003e
:104e3c000e81e800004978006300470001487800c3
:104e4c0064004700140020008e01780072132000cb
:104e5c008e80e80091407800043807001e407800ee
:104e6c00804078000164a100630047001040780086
:104e7c000080fb004600dd000040780000c07000a0
:104e8c00004f780064004700140020008e01780069
:104e9c00721320008e80e800914078005f38070084
:104eac000080fa00000006000600fa008e80e80080
:104ebc008048780064004700140020008e017800c0
:104ecc00721320008e80e80091407800e7370700cd
:104edc001e4078008080fb000004200000806000f1
:104eec004680de00004078000080fa0000000600da
:104efc000600fa000e81e8000049780063004700c4
:104f0c000148780064004700140020008e017800ee
:104f1c00721320008e80e80091407800d337070090
:104f2c001e407800804078000174a10063004700a7
:104f3c00104078000080fb004700dd000040780046
:104f4c0000c07000004f780064004700140020007f
:104f5c008e017800721320008e80e800914078005a
:104f6c002e3807000080fa00000006000600fa0048
:104f7c008e80e80080487800640047001400200010
:104f8c008e017800721320008e80e800914078002a
:104f9c00b63707001e4078000080fb004700de009b
:104fac00004078000080fa00000006000600fa00bd
:104fbc000e81e80000497800630047000148780042
:104fcc0064004700140020008e0178007214200049
:104fdc008e80e80091407800a43707001e407800ce
:104fec008040780000cfb30080c0600063004700b1
:104ffc001040780000c07000004f7800640047003b
:10500c00140020008e017800721420008e80e800bd
:10501c0091407800013807000080fa00000006007b
:10502c000600fa008e80e800804878006400470093
:10503c00140020008e017800721420008e80e8008d
:10504c0091407800893707001e4078006f4060005f
:10505c000080fa00000006000600fa000e81e8004d
:10506c00004978006300470001487800640047005d
:10507c00140020008e017800721420008e80e8004d
:10508c0091407800793707001e4078008040780006
:10509c000144a10063004700104078000080fb0031
:1050ac004400dd000040780000c07000004f780024
:1050bc0064004700140020008e0178007214200058
:1050cc008e80e80091407800d43707000080fa0009
:1050dc00000006000600fa008e80e8008048780088
:1050ec0064004700140020008e0178007214200028
:1050fc008e80e800914078005c3707001e407800f5
:10510c000080fb00700060004480de0000407800ee
:10511c000080fa00000006000600fa000e81e8008c
:10512c00004978006300470001487800640047009c
:10513c00140020008e017800721420008e80e8008c
:10514c0091407800493707001e4078008040780075
:10515c000154a10063004700104078000080fb0060
:10516c004500dd000040780000c07000004f780062
:10517c0064004700140020008e0178007214200097
:10518c008e80e80091407800a43707000080fa0078
:10519c00000006000600fa008e80e80080487800c7
:1051ac0064004700140020008e0178007214200067
:1051bc008e80e800914078002c3707001e40780064
:1051cc008080fb0000022000008060004580de0033
:1051dc00004078000080fa00000006000600fa008b
:1051ec000e81e80000497800630047000148780010
:1051fc0064004700140020008e0178007214200017
:10520c008e80e80091407800183707001e40780027
:10521c00804078000164a1006300470010407800d2
:10522c000080fb004600dd000040780000c07000ec
:10523c00004f780064004700140020008e017800b5
:10524c00721420008e80e8009140780073370700bc
:10525c000080fa00000006000600fa008e80e800cc
:10526c008048780064004700140020008e0178000c
:10527c00721420008e80e80091407800fb36070005
:10528c001e4078008080fb0000042000008060003d
:10529c004680de00004078000080fa000000060026
:1052ac000600fa000e81e800004978006300470010
:1052bc000148780064004700140020008e0178003b
:1052cc00721420008e80e80091407800e7360700c9
:1052dc001e407800804078000174a10063004700f4
:1052ec00104078000080fb004700dd000040780093
:1052fc0000c07000004f78006400470014002000cc
:10530c008e017800721420008e80e80091407800a5
:10531c00423707000080fa00000006000600fa0081
:10532c008e80e8008048780064004700140020005c
:10533c008e017800721420008e80e8009140780075
:10534c00ca3607001e4078000080fb004700de00d4
:10535c00004078000080fa00000006000600fa0009
:10536c000e81e8000049780063004700014878008e
:10537c0064004700140020008e0178007215200094
:10538c008e80e80091407800b83607001e40780007
:10539c008040780000cfb30080c0600063004700fd
:1053ac001040780000c07000004f78006400470087
:1053bc00140020008e017800721520008e80e80009
:1053cc0091407800153707000080fa0000000600b5
:1053dc000600fa008e80e8008048780064004700e0
:1053ec00140020008e017800721520008e80e800d9
:1053fc00914078009d3607001e4078006f40600099
:10540c000080fa00000006000600fa000e81e80099
:10541c0000497800630047000148780064004700a9
:10542c00140020008e017800721520008e80e80098
:10543c00914078008d3607001e407800804078003f
:10544c000144a10063004700104078000080fb007d
:10545c004400dd000040780000c07000004f780070
:10546c0064004700140020008e01780072152000a3
