:020000040000fa
:080000000002040000000000f2
:020000040000fa
:0400080014030000dd
:020000040000fa
:04000c0014030000d9
:020000040000fa
:0400100014030000d5
:020000040000fa
:0400140014030000d1
:020000040000fa
:0400180014030000cd
:020000040000fa
:04001c0014030000c9
:020000040000fa
:0400200014030000c5
:020000040000fa
:0400240014030000c1
:020000040000fa
:0400280014030000bd
:020000040000fa
:04002c0014030000b9
:020000040000fa
:0400300014030000b5
:020000040000fa
:0400340014030000b1
:020000040000fa
:0400380014030000ad
:020000040000fa
:04003c0014030000a9
:020000040000fa
:0400400014030000a5
:020000040000fa
:0400440014030000a1
:020000040000fa
:04004800140300009d
:020000040000fa
:04004c001403000099
:020000040000fa
:040050001403000095
:020000040000fa
:040054001403000091
:020000040000fa
:04005800140300008d
:020000040000fa
:04005c001403000089
:020000040000fa
:040060001403000085
:020000040000fa
:040064001403000081
:020000040000fa
:04006800140300007d
:020000040000fa
:04006c001403000079
:020000040000fa
:040070001403000075
:020000040000fa
:040074000203000083
:020000040000fa
:04007800140300006d
:020000040000fa
:04007c001403000069
:020000040000fa
:040080001403000065
:020000040000fa
:040084001403000061
:020000040000fa
:04008800140300005d
:020000040000fa
:04008c001403000059
:020000040000fa
:040090001403000055
:020000040000fa
:040094001403000051
:020000040000fa
:04009800140300004d
:020000040000fa
:04009c001403000049
:020000040000fa
:0400a0001403000045
:020000040000fa
:0400a4001403000041
:020000040000fa
:0400a800140300003d
:020000040000fa
:0400ac001403000039
:020000040000fa
:0400b0001403000035
:020000040000fa
:0400b4001403000031
:020000040000fa
:0400b800140300002d
:020000040000fa
:0400bc001403000029
:020000040000fa
:0400c0001403000025
:020000040000fa
:0400c4001403000021
:020000040000fa
:0400c800140300001d
:020000040000fa
:0400cc001403000019
:020000040000fa
:0400d0001403000015
:020000040000fa
:0400d4001403000011
:020000040000fa
:0400d800140300000d
:020000040000fa
:0400dc001403000009
:020000040000fa
:0400e0001403000005
:020000040000fa
:0400e4001403000001
:020000040000fa
:0400e80014030000fd
:020000040000fa
:0400ec0014030000f9
:020000040000fa
:0400f00014030000f5
:020000040000fa
:0400f40014030000f1
:020000040000fa
:0400f80014030000ed
:020000040000fa
:0400fc0014030000e9
:020000040000fa
:0401000014030000e4
:020000040000fa
:0401040014030000e0
:020000040000fa
:0401080014030000dc
:020000040000fa
:04010c0014030000d8
:020000040000fa
:0401100014030000d4
:020000040000fa
:0401140014030000d0
:020000040000fa
:0401180014030000cc
:020000040000fa
:04011c0014030000c8
:020000040000fa
:0401200014030000c4
:020000040000fa
:0401240014030000c0
:020000040000fa
:0401280014030000bc
:020000040000fa
:04012c0014030000b8
:020000040000fa
:0401300014030000b4
:020000040000fa
:0401340014030000b0
:020000040000fa
:0401380014030000ac
:020000040000fa
:04013c0014030000a8
:020000040000fa
:0401400014030000a4
:020000040000fa
:0401440014030000a0
:020000040000fa
:04014800140300009c
:020000040000fa
:04014c001403000098
:020000040000fa
:040150001403000094
:020000040000fa
:040154001403000090
:020000040000fa
:04015800140300008c
:020000040000fa
:04015c001403000088
:020000040000fa
:040160001403000084
:020000040000fa
:040164001403000080
:020000040000fa
:04016800140300007c
:020000040000fa
:04016c001403000078
:020000040000fa
:040170001403000074
:020000040000fa
:040174001403000070
:020000040000fa
:04017800140300006c
:020000040000fa
:04017c001403000068
:020000040000fa
:040180001403000064
:020000040000fa
:040184001403000060
:020000040000fa
:04018800140300005c
:020000040000fa
:04018c001403000058
:020000040000fa
:040190001403000054
:020000040000fa
:040194001403000050
:020000040000fa
:04019800140300004c
:020000040000fa
:04019c001403000048
:020000040000fa
:0401a0001403000044
:020000040000fa
:0401a4001403000040
:020000040000fa
:0401a800140300003c
:020000040000fa
:0401ac001403000038
:020000040000fa
:0401b0001403000034
:020000040000fa
:0401b4001403000030
:020000040000fa
:0401b800140300002c
:020000040000fa
:0401bc001403000028
:020000040000fa
:0401c0001403000024
:020000040000fa
:0401c4001403000020
:020000040000fa
:0401c800140300001c
:020000040000fa
:0401cc001403000018
:020000040000fa
:0401d0001403000014
:020000040000fa
:0401d4001403000010
:020000040000fa
:0401d800140300000c
:020000040000fa
:0401dc001403000008
:020000040000fa
:0401e0001403000004
:020000040000fa
:0401e4001403000000
:020000040000fa
:0401e80014030000fc
:020000040000fa
:0401ec0014030000f8
:020000040000fa
:0401f00014030000f4
:020000040000fa
:0401f40014030000f0
:020000040000fa
:0401f80014030000ec
:020000040000fa
:0401fc0014030000e8
:020000040000fa
:0402000014030000e3
:020000040000fa
:0402040014030000df
:020000040000fa
:0402080014030000db
:020000040000fa
:04020c0014030000d7
:020000040000fa
:0402100014030000d3
:020000040000fa
:0402140014030000cf
:020000040000fa
:0402180014030000cb
:020000040000fa
:04021c0014030000c7
:020000040000fa
:0402200014030000c3
:020000040000fa
:0402240014030000bf
:020000040000fa
:0402280014030000bb
:020000040000fa
:04022c0014030000b7
:020000040000fa
:0402300014030000b3
:020000040000fa
:0402340014030000af
:020000040000fa
:0402380014030000ab
:020000040000fa
:04023c0014030000a7
:020000040000fa
:0402400014030000a3
:020000040000fa
:04024400140300009f
:020000040000fa
:04024800140300009b
:020000040000fa
:04024c001403000097
:020000040000fa
:040250001403000093
:020000040000fa
:04025400140300008f
:020000040000fa
:04025800140300008b
:020000040000fa
:04025c001403000087
:020000040000fa
:040260001403000083
:020000040000fa
:04026400140300007f
:020000040000fa
:04026800140300007b
:020000040000fa
:04026c001403000077
:020000040000fa
:040270001403000073
:020000040000fa
:04027400140300006f
:020000040000fa
:04027800140300006b
:020000040000fa
:04027c001403000067
:020000040000fa
:040280001403000063
:020000040000fa
:04028400140300005f
:020000040000fa
:04028800140300005b
:020000040000fa
:04028c001403000057
:020000040000fa
:040290001403000053
:020000040000fa
:04029400140300004f
:020000040000fa
:04029800140300004b
:020000040000fa
:04029c001403000047
:020000040000fa
:0402a0001403000043
:020000040000fa
:0402a400140300003f
:020000040000fa
:0402a800140300003b
:020000040000fa
:0402ac001403000037
:020000040000fa
:0402b0001403000033
:020000040000fa
:0402b400140300002f
:020000040000fa
:0402b800140300002b
:020000040000fa
:0402bc001403000027
:020000040000fa
:0402c0001403000023
:020000040000fa
:0402c400140300001f
:020000040000fa
:0402c800140300001b
:020000040000fa
:0402cc001403000017
:020000040000fa
:0402d0001403000013
:020000040000fa
:0402d400140300000f
:020000040000fa
:0402d800140300000b
:020000040000fa
:0402dc001403000007
:020000040000fa
:0402e0001403000003
:020000040000fa
:0402e40014030000ff
:020000040000fa
:0402e80014030000fb
:020000040000fa
:0402ec0014030000f7
:020000040000fa
:0402f00014030000f3
:020000040000fa
:0402f40014030000ef
:020000040000fa
:0402f80014030000eb
:020000040000fa
:0402fc0014030000e7
:020000040000fa
:0403000014030000e2
:020000040000fa
:0403040014030000de
:020000040000fa
:0403080014030000da
:020000040000fa
:04030c0014030000d6
:020000040000fa
:0403100014030000d2
:020000040000fa
:0403140014030000ce
:020000040000fa
:0403180014030000ca
:020000040000fa
:04031c0014030000c6
:020000040000fa
:0403200014030000c2
:020000040000fa
:0403240014030000be
:020000040000fa
:100400002f1e21000eff22000e01880000000000b8
:10041000000020000000e000020032000001200087
:100420002002880014000700810007000000e0009f
:1004300003003a00a09927000100200002003700c5
:100440000000200001002000810f70000100320038
:100450000f000700000020000000e0000200320052
:100460000000020000000000526d020000000000c9
:100470000040da000000fe00e02220000000e00062
:1004800002003200002020009001880000000600d9
:10049000a1028800800478000000eb001f003700f4
:1004a000e284440054a0b4009905ba00e2844400f8
:1004b00054a0b4009906ba00e284440054a0b400e9
:1004c0000006eb00476fde00fd07b200ae018800ba
:1004d000636ce10003003a000ad801000000eb0061
:1004e0000e003700606ce10008003a00004deb00a0
:1004f0000a05e800020039003420ec000af0a000f0
:100500008b05e900f9ff3e00040037006168e10057
:10051000010032000086eb000b00070019c7ba008b
:100520001905ba000e04e00003003a000a00e000da
:10053000dbff3a0000000600fe07b200ae028800b2
:100540008a047800f5ff37000cd0a300e20f4d00bd
:100550001c003b0089027800354dba000a05e8000e
:10056000020039003420ec000af0a0008b05e900fd
:100570000f003200254dba000a05e80002003900dc
:100580003420ec000af0a0008b05e90008003200de
:100590000c00e0000600320015cdba000a05e800a4
:1005a000020039003420ec000af0a0008b05e900bd
:1005b0008984e80054a0b4000b00e000e2ff3a0098
:1005c000000006009902ba00055d78008b05e9007d
:1005d000f7ff3200c82ade00055d78008b05e900d0
:1005e000f3ff32000c00e000f1ff320019ddba0029
:1005f000eeff3700000000000000000000000000d7
:1006000000000000801f78004e2eab000300320077
:1006100010c0b30008f0b7004e2ea9000268a90070
:100620004f007800004006000040da000000fe00a5
:10063000000005000001be001e0007000470a700b6
:1006400003f0a10003f8a30013003a006509b1000c
:1006500010003200090035006928e1000200350071
:1006600001002800000005000000400081804800d3
:100670008502e900fcff3a0000000600f88f420006
:10068000050035008100d1000080d3008502e8001c
:10069000fcff3a00000006008000eb0000000500af
:1006a0004f89de00820178007c0337006011b800ba
:1006b0008a033700c70ade00f107b200f50fb20067
:1006c00008003200e1cf4200020032000170a000b9
:1006d00024000500810f70000100320004080500ad
:1006e00044000500810f700002003a00140005006c
:1006f0008502e9000000400081c04800fcff3b008b
:100700000170a000240005006022b800060220004d
:100710000000d0008180d2000482d2008582d20005
:100720000000a0000202520083825a000300310040
:100730000202420083824a000000a1000603e90091
:10074000f3ff3a000000060007f827000783610066
:100750000638e10004003a00f707200087836100b3
:100760008703710001003a0003f0a200889fbe00d9
:100770008a9fbe008c9fbe00470ade000480a10055
:10078000c71ade000580a100070028000785600069
:1007900087856100f70f20000720e1009e003200ee
:1007a0000728e1009c003200010678000400e00008
:1007b000b4003200f7072000878060000170a000bd
:1007c0000500e000c0003200f707200087816100cb
:1007d0000370a000050652000f003a000b50e10024
:1007e0000b0032000308e10002003a000200e100c1
:1007f0007e0032000204500083845800040031005f
:100800000001fd008101fd008402fd008a05fd005c
:100810006044b800210037000520e10005003d00dc
:100820000001fd008101fd008402fd008a05fd003c
:10083000050652007a60e100050035000170a10054
:100840004722dd00848070008a80700063003700da
:100850006044b800ef02660007ff2f00070666003d
:100860000500e00006003400f08312008714dd006c
:100870000511de00071bdd00060171008519de0091
:100880007060e100050035000904780082047800fa
:10089000030178008001eb00700656000b50e10068
:1008a00003003a0002004000838048000400370043
:1008b00060041400e0841c0002005800838058008b
:1008c0000188a300060032008100d1000080d3001f
:1008d0008984d3000884d3000402e800270037008d
:1008e0000178a30025003a000100e0000300320077
:1008f0008186cf00698656000a0037008c002000f0
:100900000000e00004003a00090078008804780044
:100910000004eb00700252008086cf000d064600f6
:100920000c06e9007060e1000600350080007800e8
:1009300009007800880478000004eb007006560077
:10094000700252000c00e0000c0034008c08dd0046
:10095000f00316000703de00868070000c00dd0047
:10096000074bde00060070008c4cdd000743de0004
:10097000868474000c44dd000c0252006120e1000a
:1009800020003500610160000700280087816400b5
:10099000f7ff270087836400070374000300e0006b
:1009a0000600320082037300040032000000e800f9
:1009b000e08048000188a3000e003a00f70f2000f5
:1009c0000720e1004a003d000170a1004722dd0040
:1009d000810072008a8070000000be004f06be00d9
:1009e0004f05be004f04be00000006006000b800c6
:1009f000faff37008100d1000080d3000402e80034
:100a0000eeff37000401780089017400a10107009e
:100a10008a807000f1ff3700f701070007027800b5
:100a20000001fd008101fd00f3010700870278004d
:100a3000850372000778a300040032000001fd0066
:100a40008101fd0006020700e4ff37008503620014
:100a50000768a300080032000b50e10003003200d9
:100a6000f0ff2f00f1ff2700dcff37000001fd0041
:100a70008101fd00d9ff37000468a300d7ff3200d1
:100a8000faff3700f8ff2700888360000b003a0068
:100a90000000e00009003a008303640082837300d1
:100aa000020032000200be00ccff37000b50e10014
:100ab000ceff3a000200be00c8ff3700140020003d
:100ac000810064003eff3700f8ff27008883610043
:100ad00004003a000200e00002003a008c007800b6
:100ae000beff3700150020008301640039ff370086
:100af00001f827000000200081007500b7ff3700d3
:100b0000889fbe008a9fbe008c9fbe001b002000f5
:100b10000202be0005866800060028000606660080
:100b20004709de00f20fb200820032000243e80003
:100b300080003200c729de00f30fb2007d003200d2
:100b40000343e8007b003200f107b2000170a0000f
:100b5000f507b2000570a000c708dd004903de00fc
:100b6000868070004700dd00c72add004923de00d3
:100b7000868272004722dd00030551000403500005
:100b80008583580003003100000040008180480048
:100b90000a05e9008c1f78008a9fbe0004005000ff
:100ba000858058000402420085824a00000040000f
:100bb000818048000005eb000004be006033b800ef
:100bc0000406be000d48e100560031000500090092
:100bd0004dccd8000c01b8000d02b8008481410052
:100be00060824a008283530003045c0084845c00ba
:100bf00060055d000a00e00025003a0080057800ed
:100c00000d40e100490031008800780007007800bd
:100c1000050009004d88d8000c01b8000d02b8008d
:100c20008481410060824a006003110083835b007d
:100c300004045c00e0845c000900e00021003a004c
:100c40004f01be000300e0002b003200e301600012
:100c5000070673008c81710001003200640070008f
:100c60004200de004e5edd000c007000c258de0067
:100c700001e0a00083010700cf01780081807100ae
:100c80004f06be004f05be004f04be000000060028
:100c90008c8343000d044c00e0844c0060054d0043
:100ca0000000e9000a00e000d4ff32008c8343001a
:100cb0000d044c00e0844c0060054d000000e9008c
:100cc000ceff37000c0343008d834b0060044c00c3
:100cd000e0844c000000e9000900e000d8ff320089
:100ce0000c0343008d834b0060044c00e0844c00f7
:100cf0000000e900d2ff37004200de004e5edd005a
:100d00000c007000c258de0001e0a000cf017800a6
:100d10000300e000daff320060001000e0801800fd
:100d2000d7ff3700f0ff2f00aaff3700f0ff2f009a
:100d3000b9ff37000404be002f01070087067800c2
:100d40000004fd008104fd002b01070007836600fd
:100d50000678a300030032000960a7000800be0067
:100d60002c0037000d78a300020032000800be00fe
:100d7000280037000778a30026003a0001f0a10000
:100d800009f0a1000668a30003003200f1ff27006c
:100d9000f0ff2f00baff37000d68a30003003200f8
:100da0000800be008c807000b5ff37000768a30004
:100db00007003a000648a30003003200f1ff2700b5
:100dc000f0ff2f00aeff37000d48a30003003200f4
:100dd0006000b8008c807000a9ff37000748a300ae
:100de0000400320001f82700000020008c80700011
:100df000a3ff3700760107000004fd008104fd0019
:100e000002057800720107000802be008a0178001e
:100e100059ff37000160a0001202200052808800b4
:100e200097ff37000100e000120032000500e000eb
:100e300010003200889fbe008a9fbe008c9fbe00bb
:100e40000006eb0001f8a300030032006000100070
:100e5000e08018000cf0a00005f8a30003003200a9
:100e600060021200e0821a000cf0a2008005eb0084
:100e700041ff37006000b8000200050003836800ee
:100e80000700280007036300470ade000480a10072
:100e9000c71ade000580a100f70f20000720e1003f
:100ea000420032000728e10040003200889fbe0067
:100eb0008a9fbe008c1f7800f107b200f307b200d2
:100ec0000400e000640032000170a0000500e000b2
:100ed000680032000370a00085054200eb07b100f6
:100ee0000204b8000302b8008484440060854a000c
:100ef000020ab800848444000a854a00030ab80044
:100f000004054500040033000804d0008984d200a1
:100f10000a85d2008b05e9006158e1003d003500eb
:100f2000021020000901610003082000898161008e
:100f3000f70720008783640008867300c84cde0032
:100f4000c853dd00878474004855de000300e000cc
:100f50000600320082037600040032008904e800b3
:100f600060054d000a88a3000c003a00f70f20002e
:100f70000758e10044003d000a70a100c75ddd0094
:100f80000a8575008a007300090078004f06780012
:100f90004f05be004f04be00000006000a05d10048
:100fa0008984d3008b05e800f0ff3700881f7800a4
:100fb0000604780090000700070278000001fd0099
:100fc0008101fd008c000700870278008503720014
:100fd0000778a300050032000001fd008101fd003b
:100fe0009f0007004f047800000006008503720090
:100ff0000748a30003003200f0ff2f00f1ff270095
:10100000f8ff37000000200001f8270088807000fa
:10101000f4ff3700880178004848dd0080817100c6
:101020004848de00c850dd0001007000c850de00f6
:10103000060478000b017800160007008880700015
:10104000d2ff37000500e000050032001700200045
:101050003a0007009dff370081037000f9ff3a0056
:10106000860078004f0678004f05be004f04be0092
:101070000000050083037100f9ff32002700200003
:101080002e00070094ff370001f8270086807000cb
:10109000f4ff37000100e00026003200610111007a
:1010a0007810e10023003c006022b8007010e100dd
:1010b0000400350080027800010078008000eb0019
:1010c000700151000200e0000900340070031100bb
:1010d000062add00822ade008603dd008782720098
:1010e0000200de00860bdd00070070008208de00d3
:1010f00084817100f4ff2700048262008481710002
:1011000004002800848262006102600005f0a600ed
:101110000000060004827100070032000000e800b1
:10112000e0804800000006000002be006000b80039
:10113000efff37006000b80000000600889fbe0087
:101140000004eb006138e10016003a000100e00005
:1011500008003a00c800de004800dd0088002000da
:101160000100e00003003a00c800de004800dd0096
:10117000680444008184cf00e984540006003400f0
:101180008908dd00f08314008703de00878070008b
:101190000900dd0009044400610214004f04be0090
:1011a000000006000300e00008003a00c811de005d
:1011b0004811dd00880020000300e00003003a0031
:1011c000c811de004811dd00680444008384cf00ac
:1011d000e9845400060034008919dd00f08314000e
:1011e0008713de00878171000911dd0009044400c6
:1011f000e1021400e9ff37002700200001f0a700fa
:1012000017002000470bde00f60fb200040032008a
:101210000643e8000a0032004702b300000006005f
:1012200001037800f607b2000603700002003a00de
:101230000703b300000006008702b30000000600a9
:1012400001037800f607b2000603700002003200c6
:101250000770a000000006000760a0000000060064
:101260000478a300040032000578a30003003200d4
:101270000168a30001003a000200be000160a00066
:101280000000060081017000270032008002eb00a0
:1012900001f8a3000300320060001000e080180095
:1012a00015002000f4072000020242002000340054
:1012b000f70320008703600006042000000363009a
:1012c00002082000000161004700de00c909dd00be
:1012d00000807100c708de000600e0000800320050
:1012e00087037100060032001000b0000180b000da
:1012f0000188a30002003200c108de000402e800f9
:10130000f107b200f30f20000320e10003003d00cd
:101310004722dd00810072002900370001f8270014
:101320000000eb00260037006000b8000000060057
:10133000680212007f20e100020034006000b80063
:101340001f0037006011b8007020e1000400350074
:1013500080017800010078008000eb0070025200ec
:101360000400e00009003400f00312000719dd005a
:101370008419de000703dd00868171000400de00b1
:10138000070bdd00060070008408de00f7ff270071
:101390008383630087037100060028000303630052
:1013a000070032000700e00003003a00610160001e
:1013b00002817300020032001000b0000180b00012
:1013c0000500a6000000060001f0a00000000600d5
:1013d0004f0ade004709de00f107b200f20fb2004b
:1013e0000b003200f207b1000170a000c708dd0059
:1013f000c901de00838070004700dd000400a60004
:101400000000060060001000e080180000000600e8
:10141000810f700001003a00000006008182cf00b9
:101420000500e00010003e008082cf00ee82420006
:101430007028e1000400390007003e0080007800b9
:101440000000eb000e003700708312008600de0003
:101450000500dd000a003700708352008600dd00c1
:101460000000eb0006003700e28252008508dd0034
:10147000708312000603de00868070000500dd0028
:101480007507b0000501ea000400a6000000060090
:1014900060001000e080180000000600881f78003f
:1014a000030478000300e00007003d006000100026
:1014b000e080180060011900e081190002003b0083
:1014c00001f02d00030037000400070008f0a7001a
:1014d00001f0a0004f04780000000600889fbe00c5
:1014e0008a9fbe00008270000402710004827100b5
:1014f000260032000004be000200be006011b800e9
:101500006b092000950220000182cf000a003900fb
:101510000541b1000082cf00070039000541b1004c
:101520000982cf00040039000541b1000882cf00d4
:10153000010039000541b10005425200120032009d
:101540000a003b0082817100610164008100d100ca
:101550000080d3008984d3000884d3008b05e80081
:101560000442e800f7ff3a0007003700080444008f
:1015700089844c0000004800818048008b05e90008
:101580000442e900f9ff3a00030007004f05be00de
:101590004f04be000000060081002000618055005d
:1015a0000b003d000b00200061fe2f000100e10058
:1015b0001d00340082817100610164008904d10042
:1015c0000884d3000000e800faff3a007100200010
:1015d0006100640003007000020060000900320036
:1015e00061044400e0844c000988a5000500320035
:1015f0008b05e8006808e10002003a008904d10088
:101600000884d300f20f20000258e10005003d00dd
:10161000c75ddd00f907b200898075000800780019
:10162000000006000bf827008b0078000000050082
:101630000400fa00889fbe008a9fbe000004be001e
:101640004709de0003002000f20fb200f207b100ec
:10165000f60f510030003c000200e0001c00350095
:10166000faff2f00fb0720000201e900030033000e
:101670008b85d1000a85d300fbff37008b81640086
:101680000a016000e00f5100e08f59002200320093
:101690000200200003b8270034fc0700a0bf9f0011
:1016a000b1bf9f00e00f5400e08f5c0002003d00de
:1016b0000a0444008b844c000a85ea008b85ea000a
:1016c0008b8064000a0064000004be001100370033
:1016d0000200200003b8270024fc0700a0bf9f00e1
:1016e000b1bf9f00e00f5400e08f5c0002003500a6
:1016f0006044b800070037000800440089804c00af
:10170000e00f5000e08f5800020032000800200077
:1017100009f82b000800be004f05be004f04be00b4
:101720000080fa0000000600f6874700889fbe0090
:101730008a9fbe008c9fbe008e1f78000001be00f5
:101740000600200007f82f000003430081834b00b0
:10175000f4ff2f00f5f72700840f5300858f5b00ff
:101760001b0036000002400081824800e00f52005a
:10177000e08f5a0006003a000001be00bffd0700de
:101780000001be000000200001f82b000800370017
:10179000e00f5000e08f580007003d0012022000cb
:1017a000028f88000001be00e7fb07006011b8004f
:1017b000d3fc0700940037000200200003c024007f
:1017c000aefd07000001be007efe2f000a003700bc
:1017d000840f5000858f58008b003e006000b800d9
:1017e0000400200005f82300840f5100858f590064
:1017f000850032000007eb00d0b02f00a1042000cc
:10180000020240008382480094b79f00a5b79f0062
:10181000fe07b100afb09700f107b20004007800f6
:10182000324f200053f32300000041008180490023
:101830000200200003f82300c3fb07000004be00e1
:101840000200200003002400c8fb07000001be00c6
:101850000800be00aafc07000002be000001be0096
:10186000f4b79f0085bf9f0084fd07000006be00ff
:101870000001be0081fd07000005be00020020003f
:1018800003f023000800be007cfd07000801be0035
:101890007afd07000001be00f0af9f0081b79f00f6
:1018a0000800be00a8fb070081017800c3b79f00b5
:1018b00002002f0000016100b2b79f003fb1970006
:1018c000cfb197000800be009ffb07007fa99700db
:1018d0008fb197009cfb07000003be00e29e2e0024
:1018e00013e923000a00be00d6b79f00e7b79f00a8
:1018f00062fd0700a2aa2a00a3f223009bfb0700b7
:101900000001be000c00be005cfd07000004be002c
:1019100062e2290083e723000a00be0057fd0700aa
:1019200032e12c00c3ec230090fb07000001be0055
:101930000a00be0051fd07000001be000800be0005
:101940008afb07000001be007fa897008fb09700b8
:1019500086fb07000001be007fb297008fba970098
:101960000400be0045fd07000001be005fb3970004
:10197000efb397000600be007cfb07000004be002a
:101980003fb19700cfb1970078fb070042ad290027
:1019900083932b0039fd07000005be0002002b00d9
:1019a00083fb23000800be0034fd07000001be00d9
:1019b0000a00be006dfb07000004be0002002b0001
:1019c00083fb23003fb09700cfb097002bfd0700ab
:1019d0000001be000800be0064fb07000004be005a
:1019e0001fb29700afb297004728de000100200029
:1019f00000004700cf80de0029fb07000001be0089
:101a00000800be0059fb07004f0778004f06be00d4
:101a10004f05be004f04be006f01b100000006007c
:101a2000889fbe008a9fbe004709de000300200099
:101a300082017800f30fb20052092000828f51001a
:101a40001d003c004f0dde000b0020000a00e000ee
:101a5000070032000200200003b024003afb070018
:101a60000200200003b0240040fb070006003700fe
:101a70000200200003b024003cfb0700020020000d
:101a800003b0240030fb07000004be006011b80062
:101a90005d0007000000e00006003a006000b800aa
:101aa0000a00e000040032000000200001002800cd
:101ab000010037000800be004f05be004f04be0005
:101ac000000006000400fa00889fbe008a9fbe0046
:101ad0008c9fbe000004be004708de00f00fb2007d
:101ae00051092000810f500041003c000806be0053
:101af000e00f5400e08f5c0003003d000805be00cd
:101b00000bf0a200010037000805be00d10720003d
:101b1000810f50000a003c000200200003b02400a6
:101b20000a00be0011fb070080bf9f0091bf9f000d
:101b30006011b8000800be00d0fc07002b00370081
:101b40000200200003b024000a00be0007fb0700cb
:101b50000200200003b02400fbfa07000a01be00c7
:101b6000f9fa07000004be000200200003f0230081
:101b7000270007000000e000070034000a01be0053
:101b80000800be00f9fa07000200200003f8230055
:101b9000edfa07000f0037000200200003f02b00d1
:101ba0000800be00180007000000e00006003c002e
:101bb0000a01be000800be00ecfa07000200200087
:101bc00003f82300020037000a01be000800be002f
:101bd000e6fa0700e00f5600e08f5e0003003d00cc
:101be0000004be0009f0a200010037000004be009e
:101bf0000800be004f06be004f05be004f04be00e9
:101c00000080fa00000006001400200002003700e7
:101c1000f4ff2f0000003700889fbe008a9fbe009f
:101c2000841f7800170007004f0078001100330070
:101c3000f0ff2f00838f6c0006003b000405650059
:101c40000a00a7000800370009f0a60010002000d5
:101c500008003700820f5400838f5c0003003900b6
:101c60001000200001003e000000200009f0a70045
:101c70000000ea004f05be004f04be000000e00077
:101c8000000006000004be008afa07000003be0040
:101c90000405be000200be0086fa0700844f7500ee
:041ca000000006003a
:020000040000fa
:101ca4000000000000000000000000000000000030
:101cb4000000000000000000000000000000000020
:101cc40000010000090e00000d0b000007060000d3
:101cd4000f0200000c0500000a04000003080000c5
:101ce40000020000010f0000090500000e0c0000b6
:101cf4000d0400000b0a00000708000006030000a2
:101d04000003000008010000040e0000090a00009e
:101d140002060000070f00000d0c0000050b000078
:101d240000040000020d0000010a00000f0b000077
:101d340009080000050700000e0300000c0600005f
:101d4400000500000b0300000c010000080d00005a
:101d5400060a000009020000040700000f0e00003c
:101d64000006000003020000080f00000107000045
:101d7400040c00000e0d0000090b00000a05000011
:101d8400000700000a0c0000050400000601000022
:101d94000b0e000002080000030f0000090d0000f4
:101da4000008000004090000020700000d050000ff
:101db400010300000a0e00000f0600000b0c0000d7
:101dc400000900000d0700000f0c00000a030000ca
:101dd4000e010000060b00000502000008040000cc
:101de400000a0000050600000b02000003090000c1
:101df4000c07000001040000080e00000d0f000095
:101e0400000b00000c08000006090000040f00008d
:101e1400030500000d010000020a00000e07000087
:101e2400000c000006040000030d0000020e000078
:101e3400080b00000f09000001050000070a00005c
:101e4400000d00000f0a00000e0600000508000047
:101e540007090000030c00000b010000040200004d
:101e6400000e0000070b00000a0800000c0200002e
:101e7400050f000004030000060d00000109000026
:101e8400000f00000e050000070300000b04000013
:101e94000a0d0000080600000c0900000201000001
:101ea400000000000000000000000000000000002e
:101eb400000000000000000000000000000000001e
:101ec40000010000020300000405000006070000f2
:101ed400080900000a0b00000c0d00000e0f0000a2
:101ee4000002000004060000080a00000c0e0000b6
:101ef40003010000070500000b0900000f0d00009e
:101f040000030000060500000c0f00000a09000091
:101f14000b0800000d0e0000070400000102000081
:101f240000040000080c0000030700000b0f000071
:101f3400060200000e0a0000050100000d09000061
:101f4400000500000a0f0000070200000d08000051
:101f54000e0b000004010000090c00000306000041
:101f6400000600000c0a00000b0d00000701000031
:101f740005030000090f00000e0800000204000021
:101f8400000700000e0900000f0800000106000011
:101f94000d0a000003040000020500000c0b000001
:101fa40000080000030b0000060e0000050d0000f1
:101fb4000c0400000f0700000a02000009010000e1
:101fc4000009000001080000020b0000030a0000e1
:101fd400040d0000050c0000060f0000070e0000b1
:101fe400000a0000070d00000e04000009030000b1
:101ff4000f05000008020000010b0000060c0000a1
:10200400000b0000050e00000a0100000f04000090
:10201400070c0000020900000d0600000803000080
:10202400000c00000b070000050900000e02000070
:102034000a060000010d00000f0300000408000060
:10204400000d000009040000010c00000805000058
:10205400020f00000b060000030e00000a07000038
:10206400000e00000f0100000d030000020c000030
:102074000907000006080000040a00000b05000020
:10208400000f00000d02000009060000040b000010
:10209400010e00000c03000008070000050a000000
:1020a400fc2e000027980000000000000000000043
:1020b400000000000000000000000000010d00000e
:1020c4000c08000007de0000adbe0000ef0b0000ae
:1020d400adc00000ffee0000550000000405000044
:1020e40006070000080900000a0b00000b0c0000a2
:0c20f4000d0e00000e0e00000e0f00008c
:020000040000fa
:102100000400fa00889fbe00804478000104780033
:1021100088ff9f0014002000e88157001210200063
:1021200089407800668057003c3207004844de0052
:1021300088ff9f0014002000e88157000210200053
:102140008940780066805700343207004f04be0093
:102150000080fa00000006000400fa00889fbe001c
:102160000044780014002000e8815700121020007d
:102170008840780066805700f23107000ff897001a
:102180008084fb0014002000e8815700021020002a
:102190008840780066805700ea3107008ff8970082
:1021a0000180fb004800dd00090040004f04be0034
:1021b0000080fa00000006000400fa000174a1008b
:1021c000c1ff9f0014002000e4815700221020006e
:1021d000804078000f80e900103207000080fa008c
:1021e000000006000400fa0014002000e4815700fb
:1021f00022102000804078000f80e900d1310700d4
:102200004ff897000074a1000080fa00000006005b
:102210000400fa00889fbe008a1f780000457800fd
:102220000204be00e2f79f0014002000ea8157007c
:10223000521020008a40780068805700f73107006c
:102240004849dd004840de0000007100c848de005b
:10225000e0f79f0014002000ea81570042102000a0
:102260008a40780068805700ec310700404cde005f
:10227000e8f79f0014002000ea8157003210200088
:102280008a40780068805700e43107004f057800e5
:102290004f04be000080fa00000006000400fa00af
:1022a000881f78008a9fbe008c9fbe000044780083
:1022b00014002000ee815700521020008840780062
:1022c0006c8057009f3107002ff097000086fb00bd
:1022d0008006eb0014002000ee8157004210200021
:1022e000884078006c805700963107002ff19700e6
:1022f0000280fb008000eb00480ddd00c805de0019
:102300008b0575004805dd0014002000ee815700a4
:1023100032102000884078006c8057008931070017
:102320002ff197008280fb00000020000a0040008f
:102330008b8048000000460081804e004f06be00a2
:102340004f05be004f0478000080fa000000060030
:102350000400fa00889fbe008a1f780000457800bc
:102360000204be00e2f79f0014002000ea8157003b
:10237000821020008a40780068805700a73107004b
:102380004849dd004840de0000007100c848de001a
:10239000e0f79f0014002000ea815700721020002f
:1023a0008a407800688057009c310700404cde006e
:1023b000e8f79f0014002000ea8157006210200017
:1023c0008a40780068805700943107004f057800f4
:1023d0004f04be000080fa00000006000400fa006e
:1023e000881f78008a9fbe008c9fbe000044780042
:1023f00014002000ee8157008210200088407800f1
:102400006c8057004f3107002ff097000086fb00cb
:102410008006eb0014002000ee81570072102000af
:10242000884078006c805700463107002ff19700f4
:102430000280fb008000eb00480ddd00c805de00d7
:102440008b0575004805dd0014002000ee81570063
:1024500062102000884078006c80570039310700f6
:102460002ff197008280fb00000020000a0040004e
:102470008b8048000000460081804e004f06be0061
:102480004f05be004f0478000080fa0000000600ef
:102490000400fa00889fbe008a1f7800004578007b
:1024a0000204be00e2f79f0014002000ea815700fa
:1024b000b21020008a40780068805700573107002a
:1024c0004849dd004840de0000007100c848de00d9
:1024d000e0f79f0014002000ea815700a2102000be
:1024e0008a407800688057004c310700404cde007d
:1024f0006f406400e0f79f0014002000ea8157005d
:10250000921020008a40780068805700433107000d
:102510004f0578004f04be000080fa00000006005e
:102520000400fa00881f78008a9fbe0000447800eb
:1025300014002000ea815700b21020008840780083
:1025400068805700ff3007006ff097000085fb00a0
:102550008005eb0014002000ea815700a210200043
:102560008840780068805700f6300700eff0970049
:102570000181fb008001eb004818dd00c810de007f
:10258000810070004810dd000005450081854d0088
:1025900014002000ea815700921020008840780043
:1025a00068805700e7300700eff097000180fb00dc
:1025b0006011b8006f016000c011dd000200200052
:1025c0000a0041008b8049004f05be004f0478008f
:1025d0000080fa00000006000400fa00889fbe0098
:1025e000804478000144780014002000e8815700fe
:1025f000921020008940780066805700d130070093
:102600004744dd000ff897000074a10000407400fb
:1026100080ff9f0014002000e881570092102000e6
:102620008940780066805700fc3007004f04be00e8
:102630000080fa00000006000400fa0014002000e8
:10264000e481570092102000804078000f80e9005c
:10265000bc300700cff897000180fb004700de0088
:102660000080fa00000006000400fa00889fbe0007
:10267000804478000104780088ff9f001400200047
:10268000e8815700d210200089407800668057000a
:10269000e23007004844de0088ff9f00140020005d
:1026a000e8815700c21020008940780066805700fa
:1026b000da3007004f04be000080fa000000060078
:1026c0000400fa00889fbe00004478001400200037
:1026d000e8815700d21020008840780066805700bb
:1026e000983007000ff897008084fb00140020004a
:1026f000e8815700c21020008840780066805700ab
:10270000903007008ff897000180fb004800dd0043
:10271000090040004f04be000080fa0000000600df
:102720000400fa00889fbe0080447800010478000d
:1027300088ff9f0014002000e8815700f21020005d
:102740008940780066805700b43007004844de00b6
:1027500088ff9f0014002000e8815700e21020004d
:102760008940780066805700ac3007004f04be00f7
:102770000080fa00000006000400fa00889fbe00f6
:102780000044780014002000e8815700f210200077
:1027900088407800668057006a3007000ff897007d
:1027a0008084fb0014002000e8815700e210200024
:1027b0008840780066805700623007008ff89700e5
:1027c0000180fb004800dd00090040004f04be000e
:1027d0000080fa00000006000400fa00889fbe0096
:1027e000804478000104780088ff9f0014002000d6
:1027f000e881570012112000894078006680570058
:10280000863007004844de0088ff9f001400200047
:10281000e881570002112000894078006680570047
:102820007e3007004f04be000080fa000000060062
:102830000400fa00889fbe000044780014002000c5
:10284000e881570012112000884078006680570008
:102850003c3007000ff897008084fb001400200034
:10286000e8815700021120008840780066805700f8
:10287000343007008ff897000180fb004800dd002e
:10288000090040004f04be000080fa00000006006e
:102890000400fa00889fbe0080447800010478009c
:1028a00088ff9f0014002000e881570032112000ab
:1028b0008940780066805700583007004844de00a1
:1028c00088ff9f0014002000e8815700221120009b
:1028d0008940780066805700503007004f04be00e2
:1028e0000080fa00000006000400fa00889fbe0085
:1028f0000044780014002000e881570032112000c5
:1029000088407800668057000e3007000ff8970067
:102910008084fb0014002000e88157002211200071
:102920008840780066805700063007008ff89700cf
:102930000180fb004800dd00090040004f04be009c
:102940000080fa00000006000400fa00ffc06000ea
:10295000c1ff9f0014002000e481570042112000b5
:10296000804078000f80e9002c3007000080fa00da
:10297000000006000400fa0014002000e481570063
:1029800042112000804078000f80e900ed2f070001
:10299000cff897007fc060000080fa0000000600ba
:1029a0000400fa00efc06000c1ff9f001400200087
:1029b000e481570052112000804078000f80e90028
:1029c000163007000080fa00000006000400fa003c
:1029d00014002000e481570052112000804078004c
:1029e0000f80e900d72f0700cff897006fc0600075
:1029f0000080fa00000006000400fa00efc060004a
:102a0000c1ff9f0014002000e481570062112000e4
:102a1000804078000f80e900003007000080fa0055
:102a2000000006000400fa0014002000e4815700b2
:102a300062112000804078000f80e900c12f07005c
:102a4000cff897006fc060000080fa000000060019
:102a50000400fa00889fbe0000447800814478009a
:102a600014002000e881570072112000884078008f
:102a700066805700b32f0700c0cfb3008ff89700d0
:102a800000c0600000c0740080ff9f0014002000a0
:102a9000e881570072112000884078006680570056
:102aa000de2f07004f04be000080fa000000060081
:102ab0000400fa0014002000e48157007211200085
:102ac000804078000f80e9009e2f0700cff8970024
:102ad00063c060000080fa00000006000400fa00f5
:102ae000889fbe00804478000144780014002000d4
:102af000e8815700721120008940780066805700f5
:102b0000902f07004244dd0030cfb3008ff89700cc
:102b100000c060000040740080ff9f00140020008f
:102b2000e8815700721120008940780066805700c4
:102b3000ba2f07004f04be000080fa000000060014
:102b40000400fa0014002000e481570072112000f4
:102b5000804078000f80e9007a2f0700cff89700b7
:102b60000180fb0032800a00000000000080fa00b3
:102b7000000006000400fa00889fbe008044780030
:102b80000144780014002000e881570072112000f1
:102b900089407800668057006a2f07004444dd00b2
:102ba000f0ccb3008ff8970000c0600000407400c4
:102bb00080ff9f0014002000e88157007211200060
:102bc0008940780066805700942f07004f04be00ac
:102bd0000080fa00000006000400fa001400200043
:102be000e481570072112000804078000f80e900d6
:102bf000542f0700cff897000180fb0054800a0093
:102c0000000000000080fa00000006000400fa0046
:102c1000889fbe00804478000144780014002000a2
:102c2000e8815700721120008940780066805700c3
:102c3000442f07004644dd000ff89700f043b20030
:102c40000040740080ff9f0014002000e8815700be
:102c50007211200089407800668057006f2f0700ae
:102c60004f04be000080fa00000006000400fa00d5
:102c700014002000e4815700721120008040780089
:102c80000f80e9002f2f0700cff897000180fb008d
:102c90004600de000080fa00000006000400fa0092
:102ca00014002000e4815700821120008040780049
:102cb0000f80e900232f0700cff8970063c0600062
:102cc0000080fa00000006000400fa001400200052
:102cd000e481570082112000804078000f80e900d5
:102ce000182f0700cff897000180fb0032800a0000
:102cf000000000000080fa00000006000400fa0056
:102d000014002000e48157008211200080407800e8
:102d10000f80e9000b2f0700cff897000180fb0020
:102d200044800a00000000000080fa000000060055
:102d30000400fa00889fbe000044780081447800b7
:102d400014002000e881570002122000884078001b
:102d500066805700fb2e070000cfb3008ff8970066
:102d600000c0600000c0740080ff9f0014002000bd
:102d7000e8815700021220008840780066805700e2
:102d8000262f07004f04be000080fa000000060056
:102d90000400fa0014002000e48157000212200011
:102da000804078000f80e900e62e0700cff89700fa
:102db0006fc060000080fa00000006000400fa0006
:102dc000889fbe00804478000144780014002000f1
:102dd000e881570002122000894078006680570081
:102de000d82e07004444dd008ff897006fc06000c4
:102df0000040740080ff9f0014002000e88157000d
:102e0000021220008940780066805700032f0700d7
:102e10004f04be000080fa00000006000400fa0023
:102e200014002000e4815700021220008040780046
:102e30000f80e900c32e0700cff897000180fb0048
:102e40004400de000080fa00000006000400fa00e2
:102e5000889fbe0000447800814478001400200060
:102e6000e8815700021320008840780066805700f0
:102e7000b42e070000cfb3008ff8970000c06000a9
:102e800000c0740080ff9f0014002000e8815700fc
:102e9000021320008840780066805700df2e07006c
:102ea0004f04be000080fa00000006000400fa0093
:102eb00014002000e48157000213200080407800b5
:102ec0000f80e9009f2e0700cff897006fc06000c9
:102ed0000080fa00000006000400fa00889fbe008f
:102ee000804478000144780014002000e8815700f5
:102ef000021320008940780066805700912e070059
:102f00004444dd008ff897006fc0600000407400fb
:102f100080ff9f0014002000e8815700021320006a
:102f20008940780066805700bc2e07004f04be0021
:102f30000080fa00000006000400fa0014002000df
:102f4000e481570002132000804078000f80e900e0
:102f50007c2e0700cff897000180fb004400de00c4
:102f60000080fa00000006000400fa00889fbe00fe
:102f7000004478008144780014002000e881570064
:102f80000214200088407800668057006d2e0700ec
:102f900000cfb3008ff8970000c0600000c074003d
:102fa00080ff9f0014002000e881570002142000d9
:102fb0008840780066805700982e07004f04be00b6
:102fc0000080fa00000006000400fa00140020004f
:102fd000e481570002142000804078000f80e9004f
:102fe000582e0700cff897006fc060000080fa00ed
:102ff000000006000400fa00889fbe0080447800ac
:103000000144780014002000e881570002142000d9
:1030100089407800668057004a2e07004444dd004e
:103020008ff897006fc060000040740080ff9f0021
:1030300014002000e8815700021420008940780025
:1030400066805700752e07004f04be000080fa000e
:10305000000006000400fa0014002000e48157007c
:1030600002142000804078000f80e900352e070010
:10307000cff897000180fb004400de000080fa00da
:10308000000006000400fa00889fbe00004478009b
:103090008144780014002000e881570002152000c8
:1030a0008840780066805700262e070000cfb300c6
:1030b0008ff8970000c0600000c0740080ff9f0080
:1030c00014002000e8815700021520008840780095
:1030d00066805700512e07004f04be000080fa00a2
:1030e000000006000400fa0014002000e4815700ec
:1030f00002152000804078000f80e900112e0700a3
:10310000cff897006fc060000080fa000000060052
:103110000400fa00889fbe008044780001447800d3
:1031200014002000e8815700021520008940780033
:1031300066805700032e07004444dd008ff8970097
:103140006fc060000040740080ff9f0014002000ea
:10315000e8815700021520008940780066805700fa
:103160002e2e07004f04be000080fa00000006006b
:103170000400fa0014002000e4815700021520002a
:10318000804078000f80e900ee2d0700cff897000f
:103190000180fb004400de000080fa000000060011
:1031a0000400fa00c1ff9f0014002000e4815700d2
:1031b00012122000804078000f80e900172e0700cf
:1031c0000080fa00000006000400fa00140020004d
:1031d000e481570012122000804078000f80e9003f
:1031e000d82d07004ff897000080fa000000060075
:1031f0000400fa00c1ff9f0014002000e481570082
:1032000012132000804078000f80e900032e070091
:103210000080fa00000006000400fa0014002000fc
:10322000e481570012132000804078000f80e900ed
:10323000c42d07004ff897000080fa000000060038
:103240000400fa00c1ff9f0014002000e481570031
:1032500012142000804078000f80e900ef2d070055
:103260000080fa00000006000400fa0014002000ac
:10327000e481570012142000804078000f80e9009c
:10328000b02d07004ff897000080fa0000000600fc
:103290000400fa00c1ff9f0014002000e4815700e1
:1032a00012152000804078000f80e900db2d070018
:1032b0000080fa00000006000400fa00140020005c
:1032c000e481570012152000804078000f80e9004b
:1032d0009c2d07004ff897000080fa0000000600c0
:1032e0000400fa00e7c06000c1ff9f001400200046
:1032f000e481570022122000804078000f80e9000e
:10330000c62d07000080fa00000006000400fa0045
:1033100014002000e4815700221220008040780031
:103320000f80e900872d0700cff8970067c0600085
:103330000080fa00000006000400fa00e7c0600008
:10334000c1ff9f0014002000e481570022132000d9
:10335000804078000f80e900b02d07000080fa005f
:10336000000006000400fa0014002000e481570069
:1033700022132000804078000f80e900712d0700a3
:10338000cff8970067c060000080fa0000000600d8
:103390000400fa00e7c06000c1ff9f001400200095
:1033a000e481570022142000804078000f80e9005b
:1033b0009a2d07000080fa00000006000400fa00c1
:1033c00014002000e481570022142000804078007f
:1033d0000f80e9005b2d0700cff8970067c0600001
:1033e0000080fa00000006000400fa00e7c0600058
:1033f000c1ff9f0014002000e48157002215200027
:10340000804078000f80e900842d07000080fa00da
:10341000000006000400fa0014002000e4815700b8
:1034200022152000804078000f80e900452d07001c
:10343000cff8970067c060000080fa000000060027
:103440000400fa00889fbe000044780081447800a0
:1034500014002000e88157003212200088407800d4
:1034600066805700372d070080cfb3008ff8970094
:1034700000c0600000c0740080ff9f0014002000a6
:10348000e88157003212200088407800668057009b
:10349000622d07004f04be000080fa000000060005
:1034a0000400fa0014002000e481570032122000ca
:1034b000804078000f80e900222d0700cff89700a8
:1034c00067c060000080fa00000006000400fa00f7
:1034d000889fbe00804478000144780014002000da
:1034e000e88157003212200089407800668057003a
:1034f000142d07004444dd00f0c8b3008ff8970096
:1035000000c060000040740080ff9f001400200095
:10351000e881570032122000894078006680570009
:103520003e2d07004f04be000080fa000000060098
:103530000400fa0014002000e48157003212200039
:10354000804078000f80e900fe2c0700cff897003c
:103550000180fb0064800a00000000000080fa0087
:10356000000006000400fa00889fbe0000447800b6
:103570008144780014002000e881570032132000b5
:103580008840780066805700ee2c070080cfb3009b
:103590008ff8970000c0600000c0740080ff9f009b
:1035a00014002000e8815700321320008840780082
:1035b00066805700192d07004f04be000080fa00f6
:1035c000000006000400fa0014002000e481570007
:1035d00032132000804078000f80e900d92c0700ca
:1035e000cff8970067c060000080fa000000060076
:1035f0000400fa00889fbe008044780001447800ef
:1036000014002000e8815700321320008940780020
:1036100066805700cb2c07004444dd00f0c8b3009f
:103620008ff8970000c060000040740080ff9f008a
:1036300014002000e88157003213200089407800f0
:1036400066805700f52c07004f04be000080fa008a
:10365000000006000400fa0014002000e481570076
:1036600032132000804078000f80e900b52c07005d
:10367000cff897000180fb0064800a000000000082
:103680000080fa00000006000400fa00889fbe00d7
:10369000004478008144780014002000e88157003d
:1036a000321420008840780066805700a52c07005f
:1036b00080cfb3008ff8970000c0600000c0740096
:1036c00080ff9f0014002000e88157003214200082
:1036d0008840780066805700d02c07004f04be0059
:1036e0000080fa00000006000400fa001400200028
:1036f000e481570032142000804078000f80e900f8
:10370000902c0700cff8970067c060000080fa0097
:10371000000006000400fa00889fbe008044780084
:103720000144780014002000e88157003214200082
:103730008940780066805700822c07004444dd00f1
:10374000f0c8b3008ff8970000c06000004074001c
:1037500080ff9f0014002000e881570032142000f1
:103760008940780066805700ac2c07004f04be00eb
:103770000080fa00000006000400fa001400200097
:10378000e481570032142000804078000f80e90067
:103790006c2c0700cff897000180fb0064800a00c2
:1037a000000000000080fa00000006000400fa009b
:1037b000889fbe00004478008144780014002000f7
:1037c000e881570032152000884078006680570055
:1037d0005c2c070080cfb3008ff8970000c060001a
:1037e00000c0740080ff9f0014002000e881570093
:1037f000321520008840780066805700872c07002b
:103800004f04be000080fa00000006000400fa0029
:1038100014002000e4815700321520008040780019
:103820000f80e900472c0700cff8970067c06000c1
:103830000080fa00000006000400fa00889fbe0025
:10384000804478000144780014002000e88157008b
:10385000321520008940780066805700392c070017
:103860004444dd00f0c8b3008ff8970000c060004a
:103870000040740080ff9f0014002000e881570082
:10388000321520008940780066805700632c0700bd
:103890004f04be000080fa00000006000400fa0099
:1038a00014002000e4815700321520008040780089
:1038b0000f80e900232c0700cff897000180fb0060
:1038c00064800a00000000000080fa00000006008a
:1038d0000400fa00c408dd006f41610002c140002d
:1038e000c2ff9f0014002000e48157004212200014
:1038f000804078000f80e900482c07000080fa0023
:10390000000006000400fa00889fbe000104780051
:103910008204780014002000e88157004212200041
:103920008040780066805700062c0700004ceb00b2
:1039300000cfb3008ff8970080cc60004f04be002a
:103940000080fa00000006000400fa00c408dd0050
:103950006f41610002c14000c2ff9f0014002000bf
:10396000e481570042132000804078000f80e90076
:103970002a2c07000080fa00000006000400fa006c
:10398000889fbe00010478008204780014002000a3
:10399000e88157004213200080407800668057007d
:1039a000e82b0700004ceb0000cfb3008ff8970026
:1039b00080cc60004f04be000080fa0000000600ca
:1039c0000400fa00c408dd006f41610002c140003c
:1039d000c2ff9f0014002000e48157004214200021
:1039e000804078000f80e9000c2c07000080fa006e
:1039f000000006000400fa00889fbe000104780061
:103a00008204780014002000e8815700421420004e
:103a10008040780066805700ca2b0700004ceb00fe
:103a200000cfb3008ff8970080cc60004f04be0039
:103a30000080fa00000006000400fa00c408dd005f
:103a40006f41610002c14000c2ff9f0014002000ce
:103a5000e481570042152000804078000f80e90083
:103a6000ee2b07000080fa00000006000400fa00b8
:103a7000889fbe00010478008204780014002000b2
:103a8000e88157004215200080407800668057008a
:103a9000ac2b0700004ceb0000cfb3008ff8970071
:103aa00080cc60004f04be000080fa0000000600d9
:103ab0000400fa00c408dd006f41610002c140004b
:103ac000c2ff9f0014002000e48157005212200022
:103ad000804078000f80e900d02b07000080fa00ba
:103ae000000006000400fa00889fbe000104780070
:103af0008204780014002000e88157005212200050
:103b000080407800668057008e2b0700004ceb0049
:103b100000cfb3008ff8970080cc60004f04be0048
:103b20000080fa00000006000400fa00c408dd006e
:103b30006f41610002c14000c2ff9f0014002000dd
:103b4000e481570052132000804078000f80e90084
:103b5000b22b07000080fa00000006000400fa0003
:103b6000889fbe00010478008204780014002000c1
:103b7000e88157005213200080407800668057008b
:103b8000702b0700004ceb0000cfb3008ff89700bc
:103b900080cc60004f04be000080fa0000000600e8
:103ba0000400fa00c408dd006f41610002c140005a
:103bb000c2ff9f0014002000e4815700521420002f
:103bc000804078000f80e900942b07000080fa0005
:103bd000000006000400fa00889fbe00010478007f
:103be0008204780014002000e8815700521420005d
:103bf0008040780066805700522b0700004ceb0095
:103c000000cfb3008ff8970080cc60004f04be0057
:103c10000080fa00000006000400fa00c408dd007d
:103c20006f41610002c14000c2ff9f0014002000ec
:103c3000e481570052152000804078000f80e90091
:103c4000762b07000080fa00000006000400fa004e
:103c5000889fbe00010478008204780014002000d0
:103c6000e881570052152000804078006680570098
:103c7000342b0700004ceb0000cfb3008ff8970007
:103c800080cc60004f04be000080fa0000000600f7
:103c90000400fa00889fbe00004478008144780048
:103ca00014002000e881570062122000884078004c
:103cb00066805700232b070000cfb3008ff89700d2
:103cc00000c0600000c0740080ff9f00140020004e
:103cd000e881570062122000884078006680570013
:103ce0004e2b07004f04be000080fa0000000600c3
:103cf0000400fa0014002000e48157006212200042
:103d0000804078000f80e9000e2b0700cff8970065
:103d10006fc060000080fa00000006000400fa0096
:103d2000889fbe0080447800014478001400200081
:103d3000e8815700621220008940780066805700b1
:103d4000002b07004644dd000ff89700f043b20057
:103d50000040740080ff9f0014002000e88157009d
:103d60006212200089407800668057002b2b0700e4
:103d70004f04be000080fa00000006000400fa00b4
:103d800014002000e4815700621220008040780077
:103d90000f80e900eb2a0700cff897000180fb00b5
:103da0004600de000080fa00000006000400fa0071
:103db000889fbe00004478008144780014002000f1
:103dc000e881570062132000884078006680570021
:103dd000dc2a070000cfb3008ff8970000c0600016
:103de00000c0740080ff9f0014002000e88157008d
:103df000621320008840780066805700072b070078
:103e00004f04be000080fa00000006000400fa0023
:103e100014002000e48157006213200080407800e5
:103e20000f80e900c72a0700cff897006fc0600035
:103e30000080fa00000006000400fa00889fbe001f
:103e4000804478000144780014002000e881570085
:103e5000621320008940780066805700b92a070065
:103e60004644dd000ff89700f043b20000407400b4
:103e700080ff9f0014002000e8815700621320009b
:103e80008940780066805700e42a07004f04be008e
:103e90000080fa00000006000400fa001400200070
:103ea000e481570062132000804078000f80e90011
:103eb000a42a0700cff897000180fb004600de002f
:103ec0000080fa00000006000400fa00889fbe008f
:103ed000004478008144780014002000e8815700f5
:103ee000621420008840780066805700952a0700f9
:103ef00000cfb3008ff8970000c0600000c07400ce
:103f000080ff9f0014002000e88157006214200009
:103f10008840780066805700c02a07004f04be0022
:103f20000080fa00000006000400fa0014002000df
:103f3000e481570062142000804078000f80e9007f
:103f4000802a0700cff897006fc060000080fa0059
:103f5000000006000400fa00889fbe00804478003c
:103f60000144780014002000e8815700621420000a
:103f70008940780066805700722a07004644dd00b9
:103f80000ff89700f043b2000040740080ff9f00dc
:103f900014002000e8815700621420008940780056
:103fa000668057009d2a07004f04be000080fa007b
:103fb000000006000400fa0014002000e48157000d
:103fc00062142000804078000f80e9005d2a07001d
:103fd000cff897000180fb004600de000080fa0069
:103fe000000006000400fa00889fbe00004478002c
:103ff0008144780014002000e881570062152000f9
:1040000088407800668057004e2a070000cfb30032
:104010008ff8970000c0600000c0740080ff9f0010
:1040200014002000e88157006215200088407800c5
:1040300066805700792a07004f04be000080fa000e
:10404000000006000400fa0014002000e48157007c
:1040500062152000804078000f80e900392a0700af
:10406000cff897006fc060000080fa0000000600e3
:104070000400fa00889fbe00804478000144780064
:1040800014002000e8815700621520008940780064
:10409000668057002b2a07004644dd000ff8970082
:1040a000f043b2000040740080ff9f001400200025
:1040b000e88157006215200089407800668057002b
:1040c000562a07004f04be000080fa0000000600d8
:1040d0000400fa0014002000e4815700621520005b
:1040e000804078000f80e900162a0700cff897007b
:1040f0000180fb004600de000080fa0000000600a0
:104100000400fa00889fbe000044780081447800d3
:1041100014002000e88157007212200088407800c7
:1041200066805700072a070000cfb3008ff897007a
:1041300000c0600000c0740080ff9f0014002000d9
:10414000e88157007212200088407800668057008e
:10415000322a07004f04be000080fa00000006006b
:104160000400fa0014002000e481570072122000bd
:10417000804078000f80e900f2290700cff897000f
:104180006fc060000080fa00000006000400fa0022
:10419000889fbe008044780001447800140020000d
:1041a000e88157007212200089407800668057002d
:1041b000e42907004444dd000ff897000044a10003
:1041c0000040740080ff9f0014002000e881570029
:1041d0007212200089407800668057000f2a07007d
:1041e0004f04be000080fa00000006000400fa0040
:1041f00014002000e48157007212200080407800f3
:104200000f80e900cf290700cff897000180fb005d
:1042100044800a00000000000080fa000000060050
:104220000400fa00889fbe008044780001447800b2
:1042300014002000e88157007212200089407800a5
:1042400066805700bf2907004544dd000ff897003e
:104250000054a1000040740080ff9f001400200063
:10426000e88157007212200089407800668057006c
:10427000ea2907004f04be000080fa000000060093
:104280000400fa0014002000e4815700721220009c
:10429000804078000f80e900aa290700cff8970036
:1042a0000180fb0055800a00000000000080fa0039
:1042b000000006000400fa00889fbe0080447800d9
:1042c0000144780014002000e88157007212200099
:1042d00089407800668057009a2907004644dd002f
:1042e0000ff897000064a1000040740080ff9f0059
:1042f00014002000e88157007212200089407800e5
:1043000066805700c52907004f04be000080fa00f0
:10431000000006000400fa0014002000e4815700a9
:1043200072122000804078000f80e9008529070084
:10433000cff897000180fb0066800a0000000000b3
:104340000080fa00000006000400fa00889fbe000a
:10435000804478000144780014002000e881570070
:104360007212200089407800668057007529070086
:104370004744dd000ff897000074a100004074006e
:1043800080ff9f0014002000e88157007212200077
:104390008940780066805700a02907004f04be00be
:1043a0000080fa00000006000400fa00140020005b
:1043b000e481570072122000804078000f80e900ed
:1043c00060290700cff897000180fb004700de005e
:1043d0000080fa00000006000400fa00889fbe007a
:1043e000004478008144780014002000e8815700e0
:1043f000721320008840780066805700512907001a
:1044000000cfb3008ff8970000c0600000c07400b8
:1044100080ff9f0014002000e881570072132000e5
:1044200088407800668057007c2907004f04be0052
:104430000080fa00000006000400fa0014002000ca
:10444000e481570072132000804078000f80e9005b
:104450003c290700cff897006fc060000080fa0089
:10446000000006000400fa00889fbe008044780027
:104470000144780014002000e881570072132000e6
:1044800089407800668057002e2907004444dd00eb
:104490000ff897000044a1000040740080ff9f00c7
:1044a00014002000e8815700721320008940780032
:1044b00066805700592907004f04be000080fa00ab
:1044c000000006000400fa0014002000e4815700f8
:1044d00072132000804078000f80e900192907003e
:1044e000cff897000180fb0044800a000000000024
:1044f0000080fa00000006000400fa00889fbe0059
:10450000804478000144780014002000e8815700be
:10451000721320008940780066805700092907003f
:104520004544dd000ff897000054a10000407400de
:1045300080ff9f0014002000e881570072132000c4
:104540008940780066805700342907004f04be0078
:104550000080fa00000006000400fa0014002000a9
:10456000e481570072132000804078000f80e9003a
:10457000f4280700cff897000180fb0055800a005f
:10458000000000000080fa00000006000400fa00ad
:10459000889fbe0080447800014478001400200009
:1045a000e881570072132000894078006680570028
:1045b000e42807004644dd000ff897000064a100de
:1045c0000040740080ff9f0014002000e881570025
:1045d0007213200089407800668057000f29070079
:1045e0004f04be000080fa00000006000400fa003c
:1045f00014002000e48157007213200080407800ee
:104600000f80e900cf280700cff897000180fb005a
:1046100066800a00000000000080fa00000006002a
:104620000400fa00889fbe008044780001447800ae
:1046300014002000e88157007213200089407800a0
:1046400066805700bf2807004744dd000ff8970039
:104650000074a1000040740080ff9f00140020003f
:10466000e881570072132000894078006680570067
:10467000ea2807004f04be000080fa000000060090
:104680000400fa0014002000e48157007213200097
:10469000804078000f80e900aa280700cff8970033
:1046a0000180fb004700de000080fa0000000600e9
:1046b0000400fa00889fbe0000447800814478001e
:1046c00014002000e8815700721420008840780010
:1046d000668057009b28070000cfb3008ff8970033
:1046e00000c0600000c0740080ff9f001400200024
:1046f000e8815700721420008840780066805700d7
:10470000c62807004f04be000080fa000000060023
:104710000400fa0014002000e48157007214200005
:10472000804078000f80e90086280700cff89700c6
:104730006fc060000080fa00000006000400fa006c
:10474000889fbe0080447800014478001400200057
:10475000e881570072142000894078006680570075
:10476000782807004444dd000ff897000044a100ba
:104770000040740080ff9f0014002000e881570073
:10478000721420008940780066805700a328070033
:104790004f04be000080fa00000006000400fa008a
:1047a00014002000e481570072142000804078003b
:1047b0000f80e90063280700cff897000180fb0015
:1047c00044800a00000000000080fa00000006009b
:1047d0000400fa00889fbe008044780001447800fd
:1047e00014002000e88157007214200089407800ee
:1047f00066805700532807004544dd000ff89700f6
:104800000054a1000040740080ff9f0014002000ad
:10481000e8815700721420008940780066805700b4
:104820007e2807004f04be000080fa00000006004a
:104830000400fa0014002000e481570072142000e4
:10484000804078000f80e9003e280700cff89700ed
:104850000180fb0055800a00000000000080fa0083
:10486000000006000400fa00889fbe008044780023
:104870000144780014002000e881570072142000e1
:1048800089407800668057002e2807004644dd00e6
:104890000ff897000064a1000040740080ff9f00a3
:1048a00014002000e881570072142000894078002d
:1048b00066805700592807004f04be000080fa00a8
:1048c000000006000400fa0014002000e4815700f4
:1048d00072142000804078000f80e900192807003a
:1048e000cff897000180fb0066800a0000000000fe
:1048f0000080fa00000006000400fa00889fbe0055
:10490000804478000144780014002000e8815700ba
:10491000721420008940780066805700092807003b
:104920004744dd000ff897000074a10000407400b8
:1049300080ff9f0014002000e881570072142000bf
:104940008940780066805700342807004f04be0075
:104950000080fa00000006000400fa0014002000a5
:10496000e481570072142000804078000f80e90035
:10497000f4270700cff897000180fb004700de0016
:104980000080fa00000006000400fa00889fbe00c4
:10499000004478008144780014002000e88157002a
:1049a000721520008840780066805700e5270700d0
:1049b00000cfb3008ff8970000c0600000c0740003
:1049c00080ff9f0014002000e8815700721520002e
:1049d0008840780066805700102807004f04be000a
:1049e0000080fa00000006000400fa001400200015
:1049f000e481570072152000804078000f80e900a4
:104a0000d0270700cff897006fc060000080fa0041
:104a1000000006000400fa00889fbe008044780071
:104a20000144780014002000e8815700721520002e
:104a30008940780066805700c22707004444dd00a3
:104a40000ff897000044a1000040740080ff9f0011
:104a500014002000e881570072152000894078007a
:104a600066805700ed2707004f04be000080fa0063
:104a7000000006000400fa0014002000e481570042
:104a800072152000804078000f80e900ad270700f4
:104a9000cff897000180fb0044800a00000000006e
:104aa0000080fa00000006000400fa00889fbe00a3
:104ab000804478000144780014002000e881570009
:104ac0007215200089407800668057009d270700f6
:104ad0004544dd000ff897000054a1000040740029
:104ae00080ff9f0014002000e8815700721520000d
:104af0008940780066805700c82707004f04be0031
:104b00000080fa00000006000400fa0014002000f3
:104b1000e481570072152000804078000f80e90082
:104b200088270700cff897000180fb0055800a0016
:104b3000000000000080fa00000006000400fa00f7
:104b4000889fbe0080447800014478001400200053
:104b5000e881570072152000894078006680570070
:104b6000782707004644dd000ff897000064a10095
:104b70000040740080ff9f0014002000e88157006f
:104b8000721520008940780066805700a32707002f
:104b90004f04be000080fa00000006000400fa0086
:104ba00014002000e4815700721520008040780036
:104bb0000f80e90063270700cff897000180fb0012
:104bc00066800a00000000000080fa000000060075
:104bd0000400fa00889fbe008044780001447800f9
:104be00014002000e88157007215200089407800e9
:104bf00066805700532707004744dd000ff89700f1
:104c00000074a1000040740080ff9f001400200089
:104c1000e8815700721520008940780066805700af
:104c20007e2707004f04be000080fa000000060047
:104c30000400fa0014002000e481570072152000df
:104c4000804078000f80e9003e270700cff89700ea
:104c50000180fb004700de000080fa000000060033
:104c60000400fa00889fbe00004478008144780068
:104c700014002000e881570082122000884078004c
:104c8000668057002f27070000ceb3008ff89700eb
:104c900000c0600000c0740080ff9f00140020006e
:104ca000e881570082122000884078006680570013
:104cb0005a2707004f04be000080fa0000000600db
:104cc0000400fa0014002000e48157008212200042
:104cd000804078000f80e9001a270700cff897007e
:104ce0007fc060000080fa00000006000400fa00a7
:104cf000889fbe00804478000144780014002000a2
:104d0000e8815700821220008940780066805700b1
:104d10000c2707004644dd000ff897000064a1004f
:104d20000040740080ff9f0014002000e8815700bd
:104d300082122000894078006680570037270700dc
:104d40004f04be000080fa00000006000400fa00d4
:104d500014002000e4815700821220008040780077
:104d60000f80e900f7260700cff897000180fb00cd
:104d700066800a00000000000080fa0000000600c3
:104d80000400fa00889fbe00804478000144780047
:104d900014002000e881570082122000894078002a
:104da00066805700e72607004744dd000ff89700ac
:104db0000074a1000040740080ff9f0014002000d8
:104dc000e8815700821220008940780066805700f1
:104dd000122707004f04be000080fa000000060002
:104de0000400fa0014002000e48157008212200021
:104df000804078000f80e900d2260700cff89700a6
:104e00000180fb004700de000080fa000000060081
:104e10000400fa00889fbe000044780081447800b6
:104e200014002000e8815700821320008840780099
:104e300066805700c326070000ceb3008ff89700a6
:104e400000c0600000c0740080ff9f0014002000bc
:104e5000e881570082132000884078006680570060
:104e6000ee2607004f04be000080fa000000060096
:104e70000400fa0014002000e4815700821320008f
:104e8000804078000f80e900ae260700cff8970039
:104e90007fc060000080fa00000006000400fa00f5
:104ea000889fbe00804478000144780014002000f0
:104eb000e8815700821320008940780066805700ff
:104ec000a02607004644dd000ff897000064a1000b
:104ed0000040740080ff9f0014002000e88157000c
:104ee000821320008940780066805700cb26070097
:104ef0004f04be000080fa00000006000400fa0023
:104f000014002000e48157008213200080407800c4
:104f10000f80e9008b260700cff897000180fb0087
:104f200066800a00000000000080fa000000060011
:104f30000400fa00889fbe00804478000144780095
:104f400014002000e8815700821320008940780077
:104f5000668057007b2607004744dd000ff8970066
:104f60000074a1000040740080ff9f001400200026
:104f7000e88157008213200089407800668057003e
:104f8000a62607004f04be000080fa0000000600bd
:104f90000400fa0014002000e4815700821320006e
:104fa000804078000f80e90066260700cff8970060
:104fb0000180fb004700de000080fa0000000600d0
:104fc0000400fa00889fbe00004478008144780005
:104fd00014002000e88157008214200088407800e7
:104fe000668057005726070000ceb3008ff8970061
:104ff00000c0600000c0740080ff9f00140020000b
:10500000e8815700821420008840780066805700ad
:10501000822607004f04be000080fa000000060050
:105020000400fa0014002000e481570082142000dc
:10503000804078000f80e90042260700cff89700f3
:105040007fc060000080fa00000006000400fa0043
:10505000889fbe008044780001447800140020003e
:10506000e88157008214200089407800668057004c
:10507000342607004644dd000ff897000064a100c5
:105080000040740080ff9f0014002000e88157005a
:105090008214200089407800668057005f26070050
:1050a0004f04be000080fa00000006000400fa0071
:1050b00014002000e4815700821420008040780012
:1050c0000f80e9001f260700cff897000180fb0042
:1050d00066800a00000000000080fa000000060060
:1050e0000400fa00889fbe008044780001447800e4
:1050f00014002000e88157008214200089407800c5
:10510000668057000f2607004744dd000ff8970020
:105110000074a1000040740080ff9f001400200074
:10512000e88157008214200089407800668057008b
:105130003a2607004f04be000080fa000000060077
:105140000400fa0014002000e481570082142000bb
:10515000804078000f80e900fa250700cff897001b
:105160000180fb004700de000080fa00000006001e
:105170000400fa00889fbe00004478008144780053
:1051800014002000e8815700821520008840780034
:1051900066805700eb25070000ceb3008ff897001c
:1051a00000c0600000c0740080ff9f001400200059
:1051b000e8815700821520008840780066805700fb
:1051c000162607004f04be000080fa00000006000b
:1051d0000400fa0014002000e4815700821520002a
:1051e000804078000f80e900d6250700cff89700af
:1051f0007fc060000080fa00000006000400fa0092
:10520000889fbe008044780001447800140020008c
:10521000e881570082152000894078006680570099
:10522000c82507004644dd000ff897000064a10080
:105230000040740080ff9f0014002000e8815700a8
:10524000821520008940780066805700f32507000a
:105250004f04be000080fa00000006000400fa00bf
:1052600014002000e481570082152000804078005f
:105270000f80e900b3250700cff897000180fb00fd
:1052800066800a00000000000080fa0000000600ae
:105290000400fa00889fbe00804478000144780032
:1052a00014002000e8815700821520008940780012
:1052b00066805700a32507004744dd000ff89700dc
:1052c0000074a1000040740080ff9f0014002000c3
:1052d000e8815700821520008940780066805700d9
:1052e000ce2507004f04be000080fa000000060033
:1052f0000400fa0014002000e48157008215200009
:10530000804078000f80e9008e250700cff89700d5
:105310000180fb004700de000080fa00000006006c
:105320000400fa00889fbe000044780081447800a1
:1053300014002000e8815700921220008840780075
:10534000668057007f25070000ceb3008ff89700d6
:1053500000c0600000c0740080ff9f0014002000a7
:10536000e88157009212200088407800668057003c
:10537000aa2507004f04be000080fa0000000600c6
:105380000400fa0014002000e4815700921220006b
:10539000804078000f80e9006a250700cff8970069
:1053a0007fc060000080fa00000006000400fa00e0
:1053b000889fbe00004478008144780014002000db
:1053c000e8815700921320008840780066805700db
:1053d0005c25070000ceb3008ff8970000c0600086
:1053e00000c0740080ff9f0014002000e881570077
:1053f00092132000884078006680570087250700b8
:105400004f04be000080fa00000006000400fa000d
:1054100014002000e481570092132000804078009f
:105420000f80e90047250700cff897007fc0600094
:105430000080fa00000006000400fa00889fbe0009
:10544000004478008144780014002000e88157006f
:1054500092142000884078006680570039250700a4
:1054600000ceb3008ff8970000c0600000c0740049
:1054700080ff9f0014002000e88157009214200054
